:100000000C94E8130C9419140C9419140C941914EE
:100010000C9419140C9419140C9419140C941914AC
:100020000C9419140C9419140C9419140C9419149C
:100030000C9419140C9419140C9419140C9419148C
:100040000C9419140C9410980C9419140C94191401
:100050000C9419140C9419140C94A9410C94A650E6
:100060000C9419140C9473970C9419140C9419147F
:100070000C9419140C9419140C9419140C9419144C
:100080000C9419140C9419140C9419140C9419143C
:100090000C9419140C9419140C9419140C9419142C
:1000A0000C9419140C9419140C9419140C9419141C
:1000B0000C9419140C9419140C9419140C9419140C
:1000C0000C9419140C9419140C9419140C941914FC
:1000D0000C9419140C9419140C9419140C941914EC
:1000E0000C941914514E544E434E474E4D4E8B4E68
:1000F000584E5C4E624E664E6A4E704E744E784E4E
:100100008B4E7E4E824E864EC24FC74FCC4FD64F3F
:10011000E04F5950EA4FF24FFA4F04500E5018502A
:100120002750315059503B5045504F50084AD73B0B
:100130003BCE016E84BCBFFDC12F3D6C74319ABDB6
:1001400056833DDA3D00C77F11BED9E4BB4C3E91DA
:100150006BAAAABE000000803F05A84CCDB2D44EC9
:10016000B93836A9020C50B9918688083CA6AAAACB
:100170002ABE000000803F004E414E494E4954596E
:10018000494E46CDCCCC3D0AD7233C17B7D1387762
:10019000CC2B329595E6241FB14F0A000020410078
:1001A00000C84200401C4620BCBE4CCA1B0E5AAEC2
:1001B000C59D74434F4D4D554E49434154494F4E93
:1001C0000044525952554E004552524F5253004925
:1001D0004E464F004543484F0020746F6F206C6FB0
:1001E0006E6720657874727573696F6E20707265C2
:1001F00076656E7465640A0020636F6C64206578B0
:1002000074727573696F6E2070726576656E746551
:10021000640A0047322F47332062616420706172A4
:10022000616D65746572730A00536F7370656E73E8
:10023000696F6E652E2E2E0044454C5441434F4D40
:10024000422070726F6E746F2E0052697072656E0C
:100250006469205374616D7061005072656D69202E
:10026000746173746F2E2E004E657373756E204D1E
:100270006F76696D656E746F00456E642066696C9B
:1002800065206C6973740A00426567696E2066694F
:100290006C65206C6973740A005344207072696E37
:1002A00074696E67206279746520004E6F74205304
:1002B00044207072696E74696E670A0046696C65E5
:1002C0002064656C657465643A0044656C657469A6
:1002D0006F6E206661696C65642C2046696C653AB6
:1002E00020006F70656E206661696C65642C204625
:1002F000696C653A20002569730025696D202569C0
:1003000073002569682025696D20256973002569BA
:1003100064202569682025696D2025697300256999
:100320007920256964202569682025696D20256963
:1003300073005072696E742074696D653A20000014
:1003400001363726FF023C3D38FF0F2E303E121398
:10035000FF0C0809FFFFFF1A1C18FFFF08440AFFE3
:1003600043FFFFFFFFFFFF50726F746563746564A6
:100370002050696E0A004525692025730044454CCC
:100380005441434F4D422070726F6E746F2E00D4F3
:1003900001CF01C801C101B3016F66660044454247
:1003A00055473A0055434349534F2E20004D3131B4
:1003B000332053006F6B00526973632E20636F6D9F
:1003C000706C657461746F0020573A004525692090
:1003D00025730044454C5441434F4D422070726F89
:1003E0006E746F2E0044454C5441434F4D42204F94
:1003F00066662E004361703A454D455247454E436F
:10040000595F5041525345523A300A004361703AA5
:10041000434153455F4C494748545F42524947481E
:10042000544E4553533A300A004361703A544F4793
:10043000474C455F4C49474854533A300A004361A2
:10044000703A534F4654574152455F504F574552AB
:100450003A300A004361703A4C4556454C494E4784
:100460005F444154413A300A004361703A5A5F5048
:10047000524F42453A300A004361703A4155544F59
:100480004C4556454C3A300A004361703A50524947
:100490004E545F4A4F423A310A004361703A50521B
:1004A0004F47524553533A300A004361703A415521
:1004B000544F5245504F52545F54454D503A310AB3
:1004C000004361703A454550524F4D3A310A00465B
:1004D00049524D574152455F4E414D453A4D61722B
:1004E0006C696E20312E312E35202847697468756D
:1004F000622920534F555243455F434F44455F5552
:10050000524C3A68747470733A2F2F676974687527
:10051000622E636F6D2F4D61726C696E4669726DEC
:10052000776172652F4D61726C696E2050524F5425
:100530004F434F4C5F56455253494F4E3A312E3040
:10054000204D414348494E455F545950453A444532
:100550004C5441434F4D4220455854525544455206
:100560005F434F554E543A3120555549443A6365DF
:100570006465326132662D343161322D343734385E
:100580002D396231322D6335356336326633363775
:1005900066660A002F2F20007A5F6D61783A20008E
:1005A0007A5F6D696E3A2000795F6D61783A20005C
:1005B000785F6D61783A20005265706F7274696E71
:1005C0006720656E6473746F7020737461747573E3
:1005D0000A004D31343520533C696E6465783E2005
:1005E0006F7574206F662072616E67652028302DEC
:1005F00031290A0053657474696E672054726176FC
:10060000656C20416363656C65726174696F6E3AF5
:10061000200053657474696E67205265747261635B
:100620007420416363656C65726174696F6E3A2012
:100630000053657474696E67205072696E7420414E
:100640006363656C65726174696F6E3A200053650F
:100650007474696E67205072696E7420616E6420D4
:1006600054726176656C20416363656C6572617478
:10067000696F6E3A2000205A00205900580020204F
:100680004D61783A2000205A00205900580020205F
:100690004D696E3A20004F6E20004F666600536F22
:1006A000667420656E6473746F70733A2000206402
:1006B0003A0020693A0020703A004E6F206361735F
:1006C00065206C696768740A004163746976652007
:1006D00045787472756465723A2000556E6B6E6F62
:1006E000776E20636F6D6D616E643A202200486FF3
:1006F0006D6520617373692058595A00473238007C
:10070000547A00547A005479005479005478005493
:100710007800526164697573005261646975730091
:10072000457A00457A0045790045790045780045CD
:10073000780048656967687400486569676874008F
:100740004469616720526F64004469616720526F99
:10075000640043616C696272617A2E2044656C7436
:10076000610043616C69627261205A0043616C6987
:1007700062726120590043616C69627261205800A5
:100780004175746F20486F6D6500436172696361E4
:10079000206461206D656D6F7269610043616C69F1
:1007A0006272612043656E7465720053616C76619C
:1007B00020696E206D656D6F72696100496D702EE4
:1007C00020616C74657A7A612044656C74610047BD
:1007D0003333205031004175746F2063616C69625E
:1007E00072617A696F6E65004733330044656C74DB
:1007F000612053657474696E6773004D656E752072
:100800007072696E636970616C65004D756F7669B1
:100810002058004D756F76692059004D756F7669C7
:10082000205A004573747275736F7265004D756F51
:10083000766920646920302E316D6D004D756F76BC
:1008400069206469202020316D6D004D756F7669D7
:10085000206469202031306D6D004D756F76692000
:1008600041737365004573747275736F7265004DE3
:10087000756F7669205A004D756F76692059004D65
:10088000756F76692058001000AA03F0013A0190B4
:1008900002220130031001D00302017004F700109E
:1008A00005ED00B005E5005006DD00F006D700902C
:1008B00007D1003008CC00D008C7007009C3001071
:1008C0000ABE00B00ABB00500BB700F00BB300909B
:1008D0000CB000D00DAA00100FA5005010A0009081
:1008E000119B00D0129600B014900090168B0070EF
:1008F000188500501A8000301C7B00B01E75003037
:10090000216F00B02369003026640010285F00903A
:100910002A5A00702C5500F02E4F0070314800B05C
:10092000324500F03341007036390010373700503F
:1009300038330090392D00D03A2700B03C1C0050CD
:100940003D1700F03D1100903E0900D03FE5FF62E9
:1009500065640A002C2073797374656D2073746F5D
:100960007070656421204865617465725F49443A1E
:10097000200052697363616C642E2046616C6C695F
:10098000746F0048656174696E67206661696C65A3
:1009900064004572723A2054454D50204D494E49ED
:1009A0004D41004D494E54454D5020747269676762
:1009B00065726564004572723A2054454D50204D71
:1009C000415353494D41004D415854454D502074B9
:1009D000726967676572656400203FECED3F5C7C7F
:1009E0003F2263617F3F3F52B0DF3F323327E4F164
:1009F000A52C31DF7E3F3F3F3F3F3F3F3FE13F3F41
:100A00003F3F3F3F3F3F3F3F3F3F3F3F3F3F3FEF46
:100A1000783F3F3F3FF53F3FE23F3F3F3FE13F3FB2
:100A20003F3F3F3F3F3F3F3F3F3FEE3F3F3F3FEF77
:100A3000FD3F3F3F3FF53F3F3F001C1F11111F008F
:100A4000000006191803130C00040E1F041C0000FC
:100A500000000E1315110E00001C101817050605D6
:100A600000040A0A0A0A11110E0C12120C000000EE
:100A700000001F1511151F000025753A253032752D
:100A800000253032753A25303275002D2D2D00535A
:100A900044005A00590058007C3C3E5E2B3D3F2FDD
:100AA0005B5D3B2C2A225C004572726F722077726C
:100AB0006974696E6720746F20454550524F4D210F
:100AC0000A0000002100240027002A002D00300029
:100AD000330001010000040107010A0100002200A7
:100AE000250028002B002E003100340002010000F8
:100AF000050108010B010000200023002600290049
:100B00002C002F0032000001000003010601090142
:100B100005050505070508080808020202020A0A79
:100B20000808040404040101010101010101030397
:100B3000030303030303040707070C0C0C0C0C0C42
:100B40000C0C0202020206060606060606060B0B3F
:100B50000B0B0B0B0B0B0102102020080810204080
:100B60001020408002010201080402010102040871
:100B700010204080804020100804020180040201FF
:100B80008040201008040201080402010102040848
:100B900010204080010204081020408000000A0B51
:100BA00002090C0D0E0807030401000000000000FC
:100BB0000000000000000000000000000000000035
:100BC00000000000000000001211100000000000F2
:100BD0000000000000000000000000000000000015
:100BE000000055434349534F2E2000202D20496ECD
:100BF00076616C6964206578747275646572206EC4
:100C0000756D62657220210A002D2D2D2D2D2D0070
:100C10007C4D61726C696E7C002D2D2D2D2D2D006B
:100C2000687474703A2F2F6D61726C696E66772EDE
:100C30006F726700687474703A2F2F6D61726C69FF
:100C40006E66772E6F72670020312E312E350000D0
:100C5000000000010204040000001C1C0C04040439
:100C60000201000000000004081000000000002045
:100C700020506C616E6E657242756666657242796F
:100C80007465733A20002046726565204D656D6F6E
:100C900072793A2000436F6D70696C65643A205335
:100CA000657020323920323031370A00207C2041F3
:100CB0007574686F723A20286E6F6E652C206465BB
:100CC0006661756C7420636F6E666967290A00320D
:100CD0003031372D30382D32382031323A30300033
:100CE000204C61737420557064617465643A20000F
:100CF000312E312E350A004D61726C696E00205321
:100D00006F6674776172652052657365740A00209E
:100D10005761746368646F672052657365740A0075
:100D20002042726F776E206F757420526573657400
:100D30000A002045787465726E616C205265736597
:100D4000740A00506F77657255700A00737461728F
:100D5000740A006572726F722077726974696E67C7
:100D600020746F2066696C650A00456E6473746F49
:100D70007020256320256320256320256300205AE9
:100D80003A0020593A0020583A00656E6473746F37
:100D90007073206869743A2000446F6E6520736137
:100DA00076696E672066696C652E0A004D323900DF
:100DB000534420436172642072696D6F73736100E4
:100DC0005344204361726420696E73657269746173
:100DD0000053442063617264206F6B0A006F70657A
:100DE0006E526F6F74206661696C65640A00766F7D
:100DF0006C756D652E696E6974206661696C6564D9
:100E00000A00534420696E6974206661696C0A00A7
:100E10006175746F25692E67004D3234004D323391
:100E20002025730057726974696E6720746F20669D
:100E3000696C653A20006F70656E206661696C654B
:100E4000642C2046696C653A20006F70656E2066E0
:100E500061696C65642C2046696C653A20004669BE
:100E60006C652073656C65637465640A0020536962
:100E70007A653A200046696C65206F70656E65641E
:100E80003A20006F70656E206661696C65642C2085
:100E900046696C653A20002066696C653A20004E10
:100EA0006F7720002220706F7300222070617265BE
:100EB0006E743A2200535542524F5554494E4520C4
:100EC00043414C4C207461726765743A220055436B
:100ED0004349534F2E2000747279696E6720746FF6
:100EE0002063616C6C207375622D67636F6465208D
:100EF00066696C6573207769746820746F6F206D04
:100F0000616E79206C6576656C732E204D4158209A
:100F10006C6576656C2069733A004572726F723A3F
:100F200000496E206D6F76696D656E746F2E2E2E82
:100F3000004573747275736F7265004175746F202C
:100F4000486F6D6500473238004D756F7669205ADD
:100F5000005859206C6962657269004D756F766939
:100F60002059004D756F7669205800507265706188
:100F70007261004D3530320A4D35303000526970A3
:100F800072697374696E6120696D702E00436172BD
:100F9000696361206461206D656D6F7269610049EC
:100FA0006E697A69616C697A7A6120454550524F61
:100FB0004D0053616C766120696E206D656D6F72B6
:100FC00069610046696C616D656E746F004D6F7686
:100FD000696D656E746F0054656D706572617475CE
:100FE0007261004D656E75207072696E6369706123
:100FF0006C6500507265726973632E4142532063C1
:101000006F6E6600507265726973632E504C41209A
:10101000636F6E66005049442D44005049442D448E
:10102000005049442D49005049442D49005049443D
:101030002D50005049442D50000220466163740039
:101040000220466163740002204D61780002204D49
:1010500061780002204D61780002204D696E000227
:10106000204D696E0002204D696E004F6666004F8C
:101070006E20004175746F74656D700056656C6FFD
:10108000636974C3A02076656E746F6C61005665E9
:101090006C6F636974C3A02076656E746F6C6100B9
:1010A0005567656C6C6F005567656C6C6F00436FBE
:1010B0006E74726F6C6C6F0053616C766120696E38
:1010C000206D656D6F726961005567656C6C6F00AE
:1010D0005567656C6C6F0056656C6F636974C3A06F
:1010E0002076656E746F6C610056656C6F63697411
:1010F000C3A02076656E746F6C610054656D706579
:1011000072617475726100486F6D696E6720666107
:10111000696C65640A00486F6D696E672066616975
:101120006C656400000000000000000000006543E2
:101130002020002020547A3A2B302E30300A0054E0
:1011400079005478002E546F77657220616E676C59
:1011500065203A20200020202020526164697573A8
:101160003A00457A0045790020204578002E4865F0
:10117000696768743A00253033692E7800302E256F
:10118000303369002073643A0073746420646576B8
:101190003A00737464206465763A004E6F20636F82
:1011A0006E76657267656E63650049746572617419
:1011B000696F6E203A2025303269005361766520D0
:1011C00077697468204D35303020616E642F6F72FE
:1011D00020636F707920746F20436F6E6669677546
:1011E000726174696F6E2E6800253033692E780045
:1011F000302E253033690043616C69627261746915
:101200006F6E2073643A00737464206465763A00EC
:1012100043616C6962726174696F6E204F4B004567
:101220006E64204452592D52554E007879007A78D8
:10123000002020797A00207A002079002020207870
:101240000063002E202020200020284452592D52D7
:10125000554E2900436865636B696E672E2E2E20FC
:10126000414300473333204175746F2043616C69FB
:1012700062726174650A003F284D36363520422976
:1012800065642072616469757320697320696D708B
:101290006C61757369626C652E0A003F2846296F80
:1012A00072636520697465726174696F6E20697319
:1012B00020696D706C61757369626C652028302DD2
:1012C0003330292E0A003F284329616C696272611C
:1012D00074696F6E20707265636973696F6E2069DF
:1012E0007320696D706C61757369626C6520283E4E
:1012F00030292E0A003F2856296572626F736520D7
:101300006C6576656C20697320696D706C617573AE
:1013100069626C652028302D32292E0A003F285042
:10132000296F696E747320697320696D706C6175C3
:101330007369626C652028312D37292E0A005265A9
:1013400073656E643A20006F6B00627573793A20A2
:1013500070617573656420666F7220696E70757454
:101360000A00627573793A2070617573656420664E
:101370006F7220757365720A00627573793A207016
:10138000726F63657373696E670A0055434349530F
:101390004F2E20004B494C4C2063617573656420CF
:1013A0006279204B494C4C20627574746F6E2F70BB
:1013B000696E0A0055434349534F2E20004B494C58
:1013C0004C2063617573656420627920746F6F20AF
:1013D0006D75636820696E616374697665207469F0
:1013E0006D65202D2063757272656E7420636F6D5C
:1013F0006D616E643A20005269617676696172654A
:1014000020707265676F005354414D50414E5445F2
:10141000204645524D415441005072696E746572C8
:101420002068616C7465642E206B696C6C282920BF
:1014300063616C6C6564210A00656E717565756524
:10144000696E672022000000484300004843000006
:101450004843000000005761726E696E673A204889
:101460006F6D696E672042756D702044697669738F
:101470006F72203C20310A000A0A0A0000A04000D6
:1014800000A0400000A04000003E4300003E43009A
:1014900000654301010150617373692F6D6D004A4E
:1014A00065726B00416363656C6572617A696F6E2A
:1014B000650056656C6F636974C3A000436F6E74FA
:1014C000726F6C6C6F004469616D2E2066696C6F81
:1014D000004469616D2E2066696C6F004F6666007E
:1014E0004F6E20004520696E206D6D3300436F6E96
:1014F00074726F6C6C6F0043616E6E6F7420656EFA
:10150000746572207375626469723A2000052E2E2C
:10151000004D656E75207072696E636970616C65EF
:10152000004E6F204C696E65204E756D62657220AD
:101530007769746820636865636B73756D2C204CE4
:10154000617374204C696E653A20005543434953DA
:101550004F2E200041525245535441544F2E2000EB
:101560005072696E7465722073746F707065642058
:1015700064756520746F206572726F72732E2046D9
:10158000697820746865206572726F7220616E647C
:1015900020757365204D39393920746F2072657359
:1015A000746172742E202854656D70657261747553
:1015B00072652069732072657365742E205365749B
:1015C000206974206166746572207265737461723B
:1015D00074696E67290A004E6F20436865636B73F8
:1015E000756D2077697468206C696E65206E756D05
:1015F0006265722C204C617374204C696E653A20D0
:1016000000636865636B73756D206D69736D6174DC
:1016100063682C204C617374204C696E653A20001D
:101620004C696E65204E756D626572206973206E1F
:101630006F74204C617374204C696E65204E756D1B
:101640006265722B312C204C617374204C696E657D
:101650003A20004D313130004D3331004D383420C7
:10166000582059205A204500534420726561642057
:101670006572726F720A00446F6E65207072696ED7
:1016800074696E672066696C650A0020496E766130
:101690006C6964206578747275646572200000005E
:1016A000BEC20000BEC2000000000000BE4200003A
:1016B000BE420000654324F4D43050C38E20C2A241
:1016C0004017828B7011127A910D816CD90AA86132
:1016D000E108C7586607615143061E4B5D05C145C9
:1016E000A7041A411104093D9803713931034036AA
:1016F000DB0265339102D4305402802E1D02632C2C
:10170000EE01752AC501B028A001102781018F259F
:1017100064012B244B01E0223401AC211F018D20F8
:101720000D01801FFC00841EED00971DDF00B81C1A
:10173000D200E61BC600201BBC00641AB200B2191E
:10174000A8000A19A0006A189900D1179100401743
:101750008B00B516840031167E00B31579003A155A
:101760007300C7146F0058146A00EE1366008813E4
:10177000630025135E00C7125B006C125700151240
:101780005400C111510070114F0021114B00D610AF
:1017900049008D1047004610440002104200C00F5F
:1017A0004000800F3E00420F3C00060F3B00CB0E76
:1017B0003800930E37005C0E3500270E3400F30D11
:1017C0003200C10D3100900D3000600D2E00320D41
:1017D0002D00050D2C00D90C2B00AE0C2900850C1A
:1017E00029005C0C2700350C27000E0C2600E80BA6
:1017F0002400C40B2400A00B23007D0B23005A0BF4
:101800002100390B2100180B2000F80A1F00D90A0B
:101810001E00BB0A1E009D0A1D00800A1D00630AEF
:101820001C00470A1B002C0A1B00110A1A00F709AA
:101830001A00DD091900C4091900AB091900920941
:1018400017007B091800630917004C0916003609B8
:101850001600200916000A091500F5081500E00811
:101860001400CC081400B8081400A4081400900850
:1018700013007D0812006B08130058081200460878
:101880001200340811002308110012081100010889
:101890001100F0071000E0071000D0071000C0078B
:1018A0001000B0070F00A107100091070E0083077A
:1018B0000F0074070F0065070E0057070E00490759
:1018C0000E003B070D002E070E0020070D0013072A
:1018D0000D0006070D00F9060C00ED060D00E006F0
:1018E0000C00D4060C00C8060C00BC060C00B006A8
:1018F0000C00A4060B0099060C008D060B00820656
:101900000B0077060B006C060B0061060A005706F9
:101910000B004C060A0042060A0038060A002E0692
:101920000A0024060A001A060A0010060900070623
:101930000A00FD050900F4050900EB050900E205B0
:101940000900D9050900D0050900C7050900BE0531
:101950000900B5050800AD050800A50509009C05AE
:101960000800940508008C050800840508007C0523
:101970000800740508006C050700650508005D0592
:101980000700560508004E050700470507004005FB
:10199000080038050700310507002A050700230560
:1019A00007001C050600160507000F0507000805BF
:1019B000060002050700FB040600F5040700EE041C
:1019C0000600E8040600E2040700DB040600D50474
:1019D0000600CF040600C9040600C3040600BD04C7
:1019E0000600B7040600B1040500AC040600A60416
:1019F0000600A00405009B04060095040500900461
:101A000006008A04050085040500800406007A04A7
:101A1000050075040500700405006B0405006604EC
:101A20000500610405005C0405005704050052042C
:101A300005004D04050048040500430405003E046C
:101A400004003A04050035040500300404002C04A9
:101A5000050027040400230405001E0404001A04E2
:101A6000040016040500110404000D040400090418
:101A700005000404040000040400FC030400F8034F
:101A80000400F4030400F0030400EC030400E80382
:101A90000400E4030400E0030400DC030400D803B2
:101AA0000400D4030400D0030400CC030400C803E2
:101AB0000300C503030024F404D9201BC40C5C0EEE
:101AC0009804C4095F0265077101F405F900FB047D
:101AD000B30048048700C10369005803550003039D
:101AE0004500BE023A008402310053022A00290256
:101AF000250004022000E4011C00C8011900AF0108
:101B00001700980114008401130071011000610195
:101B1000100051010E0043010D0036010B002B0196
:101B20000B0020010B00150109000C010900030145
:101B30000800FB000800F3000800EB000700E400C9
:101B40000600DE000600D8000600D2000600CC0029
:101B50000500C7000500C2000500BD000400B90073
:101B60000400B5000400B1000400AD000400A900A9
:101B70000400A5000300A20003009F0004009B00D6
:101B800003009800030095000200930003009000FA
:101B900003008D0002008B00030088000200860015
:101BA000020084000300810002007F0002007D002B
:101BB00002007B000200790002007700010076003D
:101BC00002007400020072000100710002006F0048
:101BD00002006D0001006C0002006A000100690053
:101BE000020067000100660001006500010064005A
:101BF00002006200010061000100600001005F005E
:101C000002005D0001005C0001005B0001005A0061
:101C10000100590001005800010057000100560062
:101C20000100550001005400010053000000530062
:101C300001005200010051000100500001004F005E
:101C400001004E0000004E0001004D0001004C005C
:101C500001004B0000004B0001004A000100490058
:101C60000100480000004800010047000100460054
:101C7000000046000100450000004500010044004E
:101C80000100430000004300010042000000420048
:101C900001004100000041000100400001003F0040
:101CA00000003F0001003E0000003E0001003D003A
:101CB00000003D0001003C0000003C0000003C0032
:101CC00001003B0000003B0001003A0000003A0028
:101CD0000100390000003900010038000000380020
:101CE0000000380001003700000037000100360016
:101CF000000036000000360001003500000035000D
:101D00000000350001003400000034000000340001
:101D100001003300000033000000330001003200F6
:101D200000003200000032000100310000003100EC
:101D300000003100010030000000300000003000E1
:101D400001002F0000002F0000002F0000002F00D6
:101D500001002E0000002E0000002E0001002D00CA
:101D600000002D0000002D0000002D0001002C00BF
:101D700000002C0000002C0000002C0001002B00B3
:101D800000002B0000002B0000002B0001002A00A7
:101D900000002A0000002A0000002A00010029009B
:101DA000000029000000290000002900000029008F
:101DB0000100280000002800000028000000280082
:101DC0000000280001002700000027000000270075
:101DD0000000270000002700010026000000260068
:101DE000000026000000260000002600010025005B
:101DF000000025000000250000002500000025004F
:101E00000000250001002400000024000000240040
:101E10000000240000002400010023000000230033
:101E20000000230000002300000023000000230026
:101E30000000230001002200000022000000220018
:101E4000000022000000220000002200010021000A
:101E500000002100000021000000210000002100FE
:101E600000002100000021000100200000002000EF
:101E700000002000000020000000200000002000E2
:101E8000000020000000200001001F0000001F00D3
:101E900000001F0000001F0000001F0000001F00C6
:101EA00000001F0001001E0000001E0000001E00B8
:101EB00000001E0000004D383420582059205A20C0
:101EC0004500290A002062797465733B20637263C0
:101ED000200053657474696E67732053746F726564
:101EE00064202800202863616C63756C61746564EC
:101EF00029210A0020213D2000454550524F4D2008
:101F0000435243206D69736D61746368202D2028EE
:101F100073746F726564292000290A002062797445
:101F200065733B2063726320002073746F72656475
:101F30002073657474696E67732072657472696565
:101F4000766564202800204D61726C696E3D5634C0
:101F500030290A0028454550524F4D3D0045455017
:101F6000524F4D2076657273696F6E206D69736D87
:101F70006174636820005374616D706120736F73C6
:101F80007065736100005374616D706120616E6EE5
:101F9000756C6C617461005374616D706120646173
:101FA0002053440041727265737461207374616DD3
:101FB00070610052697072656E6469207374616D3E
:101FC0007061005344206E6F6E2070726573656E91
:101FD000746500506175736100436F6E74726F6C4D
:101FE0006C6F0050726570617261005265676F6C52
:101FF000610047756172646100466C7573736F00B0
:10200000466C7573736F0056656C6F636974C3A01B
:102010002076656E746F6C610056656C6F636974D1
:10202000C3A02076656E746F6C61005567656C6C3B
:102030006F005567656C6C6F0056656C6F636974F3
:10204000C3A00056656C6F636974C3A0004D656ED4
:1020500075207072696E636970616C65005072659D
:1020600072697363616C6461204142530050726510
:1020700072697363616C646120504C410043616C10
:10208000696272617A2E2044656C746100526166E7
:10209000667265646461004469736162696C697445
:1020A00061204D6F746F7269004D38340041757452
:1020B0006F20486F6D6500473238004D756F766947
:1020C0002041737365004D656E75207072696E6393
:1020D0006970616C65005654726176206D696E009E
:1020E0005654726176206D696E0056547261762086
:1020F0006D696E00566D696E00566D696E00566DA5
:10210000696E00566D6178204500566D61782045F6
:1021100000566D6178204500566D6178205A005652
:102120006D6178205A00566D6178205A00566D61B5
:1021300078205900566D6178205900566D617820DD
:102140005900566D6178205800566D61782058000E
:10215000566D61782058004D6F76696D656E746FAD
:1021600000416D6178204500416D61782045004156
:102170006D6178205A00416D6178205A00416D618F
:1021800078205900416D6178205900416D617820B7
:102190005800416D6178205800412D53706F737461
:1021A000616D656E746F00412D53706F7374616D56
:1021B000656E746F00412D726574726163740041C5
:1021C0002D7265747261637400416363656C0041D4
:1021D0006363656C004D6F76696D656E746F005654
:1021E000652D6A65726B0056652D6A65726B0056C7
:1021F000652D6A65726B00567A2D6A65726B0056A2
:102200007A2D6A65726B00567A2D6A65726B00567C
:10221000792D6A65726B0056792D6A65726B00566E
:10222000792D6A65726B0056782D6A65726B00565F
:10223000782D6A65726B0056782D6A65726B004D59
:102240006F76696D656E746F004570617373692F89
:102250006D6D004570617373692F6D6D005A70610B
:102260007373692F6D6D005A70617373692F6D6D93
:10227000005970617373692F6D6D005970617373CC
:10228000692F6D6D005870617373692F6D6D005803
:1022900070617373692F6D6D004D6F76696D656E3A
:1022A000746F0043616E6E6F74206F70656E207383
:1022B000756264697220006563686F3A0054454D29
:1022C000502046554F524920434F4E54524F4C4C8C
:1022D0004F00546865726D616C2052756E61776154
:1022E000790048617264636F646564204465666167
:1022F000756C742053657474696E6773204C6F61DC
:102300006465640A002823000028230000282300B5
:1023100000102700000000FA430000FA430000FA12
:10232000430000C8410000C8420000C8420000C885
:10233000420000224320440020490020204D333039
:10234000312050005049442073657474696E67737E
:102350003A0A0020460020420020480020204D314B
:1023600034352053004D6174657269616C20686575
:102370006174757020706172616D65746572733A15
:102380000A00205A00205900205800204200205303
:102390000020480020520020204D363635204C00C9
:1023A00044656C74612073657474696E67733A2058
:1023B0004C3C646961676F6E616C5F726F643E2054
:1023C000523C7261646975733E20483C6865696778
:1023D00068743E20533C7365676D656E74735F70FF
:1023E00065725F733E20423C63616C696272617426
:1023F000696F6E207261646975733E2058595A3C4A
:10240000746F77657220616E676C6520636F72729E
:10241000656374696F6E733E0A00205A002059008C
:1024200020204D363636205800456E6473746F7028
:102430002061646A7573746D656E743A0A00204594
:1024400000205A002059002058002042002054004B
:1024500020204D323035205300416476616E636533
:10246000643A20533C6D696E5F66656564726174A1
:10247000653E20543C6D696E5F74726176656C5F79
:1024800066656564726174653E20423C6D696E5F8D
:102490007365676D656E745F74696D655F6D733EBE
:1024A00020583C6D61785F78795F6A65726B3E2079
:1024B0005A3C6D61785F7A5F6A65726B3E20453C7D
:1024C0006D61785F655F6A65726B3E0A002054003B
:1024D00020520020204D323034205000416363658B
:1024E0006C65726174696F6E2028756E6974732FE4
:1024F0007332293A20503C7072696E745F61636375
:10250000656C3E20523C726574726163745F6163F6
:1025100063656C3E20543C74726176656C5F6163E8
:1025200063656C3E0A00204500205A0020590020B7
:10253000204D3230312058004D6178696D756D2025
:10254000416363656C65726174696F6E2028756E96
:102550006974732F7332293A0A00204500205A000B
:1025600020590020204D3230332058004D617869C9
:102570006D756D206665656472617465732028757C
:102580006E6974732F73293A0A00204500205A009F
:1025900020590020204D3932205800537465707343
:1025A0002070657220756E69743A0A0020204D32E1
:1025B00030302044300A0020204D3230302044009A
:1025C0002044697361626C65640A0046696C616DE0
:1025D000656E742073657474696E67733A002020A9
:1025E0004D3134392043203B20556E697473206986
:1025F0006E2043656C736975730A00202047323181
:10260000202020203B20556E69747320696E206D58
:102610006D0A00202F0020403A00205A3A0020592D
:102620003A0020436F756E7420583A0020453A00F6
:10263000205A3A0020593A00583A0043290A0061CA
:10264000626C656420286D696E2074656D70200071
:10265000436F6C6420657874727564657320617271
:1026600065200023646566696E6520204445464107
:10267000554C545F4B64200023646566696E652089
:102680002044454641554C545F4B69200023646506
:1026900066696E65202044454641554C545F4B7039
:1026A0002000504944204175746F74756E65206632
:1026B000696E69736865642120507574207468655B
:1026C000206C617374204B702C204B6920616E6408
:1026D000204B6420636F6E7374616E747320667236
:1026E0006F6D2062656C6F7720696E746F20436F29
:1026F0006E66696775726174696F6E2E680A005044
:102700004944204175746F74756E65206661696C0B
:102710006564212074696D656F75740A00504944C1
:10272000204175746F74756E65206661696C6564AF
:10273000212054656D706572617475726520746FC7
:102740006F20686967680A00204B643A2000204BBC
:10275000693A2000204B703A20000A20436C6173D4
:1027600073696320504944200A002054753A2000C0
:10277000204B753A2000206D61783A2000206D6969
:102780006E3A200020643A200020626961733A208A
:102790000020746F6F206C6F6E672065787472759F
:1027A00073696F6E2070726576656E7465640A0079
:1027B00020636F6C6420657874727573696F6E2026
:1027C00070726576656E7465640A0000F9E2C2E1B4
:1027D00011241FBECFEFD1E2DEBFCDBF00E00CBFA2
:1027E00013E0A0E0B2E0E2E4F0EE01E00BBF02C0D3
:1027F00007900D92A23AB107D9F722E1A2EAB3E01D
:1028000001C01D92AE3CB207E1F713E1C7EED3E180
:1028100000E006C021970109802FFE010E948AEF87
:10282000C63ED10780E00807A9F70E94D0DA0C94D1
:1028300010F00C9400002F923F924F925F926F9293
:102840007F928F929F92AF92BF92CF92DF92EF9240
:10285000FF920F931F93CF93DF93CDB7DEB7C85787
:10286000D1090FB6F894DEBF0FBECDBF0091690647
:1028700020E6029F8001112407511B4F8091C21254
:1028800080FF1AC0E7EBF2E284917F013FEFE31A89
:10289000F30A811102C0780104C00E946093F7011D
:1028A000F3CFD7018D917D01882319F00E946093A9
:1028B000F8CF8AE00E94609381E090E09093FB0360
:1028C0008093FA031092EA031092E9038FE3809356
:1028D000ED031092EC031092EB031092BC031092E4
:1028E000BD031092BE031092BF03F80180810F5FF9
:1028F0001F4F8032D1F38E34B1F4818190ED980F67
:102900009A3020F08D3211F08B3269F43296DF016B
:1029100031962C9120532A30D0F3CD01FC01019641
:1029200020812032D9F3F093B409E093B3097F01F9
:10293000BFEFEB1AFB0A10816AE270E0C7010E9448
:10294000D8EF009731F0FC01319780818032E1F3BC
:1029500011821D3429F0143519F0173409F0CEC056
:10296000F70180812FEFE21AF20A8032C9F3805317
:102970008A3008F0C3C01093ED032091EB0330912F
:10298000EC034AE03196429FC001439F900D112411
:10299000DF0111972C91022E000C330B20533109CB
:1029A000280F391F808180538A3060F33093EC0305
:1029B0002093EB03DF0131968C918032D9F31D34E3
:1029C00051F00091B3096091E9037091EA03882402
:1029D0008394912C55C02E31310591F03CF4273170
:1029E000310571F02C31310561F70AC02537310509
:1029F00044F32737310524F0203A43E0340709F740
:102A0000B093EA03A093E90379C0413209F442C0CC
:102A1000EFEBE40FEA3108F05DC0DC017D015D9170
:102A20005032E1F3C701A0EDA50FAA3008F046C06F
:102A3000DC01EE2EF12C6701F3E0D594C794FA95F2
:102A4000E1F7A60144545C4F6A014E2F4770F40130
:102A500002C0EE0FFF1F4A95E2F7AF01F601508169
:102A6000452B40831097A1F1A01BA7014E555C4F49
:102A7000FA01A083DC014C9141544A3180F5DC011C
:102A8000CD0101964C914111C0CF7093EA03609340
:102A9000E90334C01D3409F0BBCF2032310509F001
:102AA000B7CF9093EA038093E90363E270E00E945A
:102AB000D8EF009719F1DC011C9220C0A3EDA50FFF
:102AC000A23008F4B5CF5B3211F00C94782EB0CF61
:102AD000A0E0CBCF6115710569F6BD01CBCFAD018B
:102AE0001196FA01908190539A30C8F3CA014F5F52
:102AF0005F4FFC01A081A032C9F3C1CF8091ED03EB
:102B00008D3411F40C942E20843511F40C94152E70
:102B1000873411F00C94572E8091EB039091EC03C5
:102B20008430910511F40C94071F5CF497FF02C0E8
:102B30000C94712E10912102823091050CF0E5C3A6
:102B40001FC08A35910511F40C947D1F6CF48C31F3
:102B5000910511F40C944D1F819711F00C94712E76
:102B60000E94F16B0C94712E8B35910511F40C942D
:102B7000811F8C35910511F40C94861F0C94712ED5
:102B8000112311F40C94712E0E94F36A80EC93E0EF
:102B90000E94B0870E9455938091C21283FD93C01A
:102BA000C090CC03D090CD03E090CE03F090CF0343
:102BB0002091BF063091C0064091C1065091C206D7
:102BC000C701B6010E946CE8882309F47CC080919B
:102BD000BD1281113AC060918D0270918E02072E54
:102BE000000C880B990B0E9472E89B01AC0160916C
:102BF0004D0470914E0480914F04909150040E94B6
:102C00006CE887FF22C0C092BF06D092C006E09257
:102C1000C106F092C206E7EBF2E284917F012FEF4A
:102C2000E21AF20A882321F00E946093F701F5CF9F
:102C3000E8EFF1E084917F013FEFE31AF30A882384
:102C400021F00E946093F701F5CFC090CC03D090A3
:102C5000CD03E090CE03F090CF032091BF063091DA
:102C6000C0064091C1065091C206C701B6010E943C
:102C700082EC20E030E048E453E40E94A9EE18160C
:102C800014F5C092BF06D092C006E092C106F09241
:102C9000C206E7EBF2E284917F014FEFE41AF40AF7
:102CA000882321F00E946093F701F5CFE9EDF1E070
:102CB00084917F015FEFE51AF50A882321F00E94D5
:102CC0006093F701F5CF60914E0270914F02072E8D
:102CD000000C880B990B0E9472E820910002309141
:102CE000010240910202509103020E94D1E82AE0C1
:102CF00037ED43E25CE30E94D1E825966CAF7DAFEF
:102D00008EAF9FAF2597C090C003D090C103E090D5
:102D1000C203F090C3038091B3069091B406A091D2
:102D2000B506B091B60621968CAF9DAFAEAFBFAFE2
:102D300021979C01AD01C701B6010E946CE8811189
:102D400015C02091B7063091B8064091B906509150
:102D5000BA066091C4037091C5038091C603909137
:102D6000C7030E946CE8882309F4B1C24090C403F1
:102D70005090C5036090C6037090C7032091F20382
:102D80003091F3034091F4035091F503C301B20174
:102D90000E9482EC4B015C012091EE033091EF0325
:102DA0004091F0035091F103C701B6010E9482ECFB
:102DB0009B01AC010E94D1E829966CAF7DAF8EAF2C
:102DC0009FAF2997A5019401C501B4010E94D1E8E4
:102DD0009B01AC0129966CAD7DAD8EAD9FAD299761
:102DE0000E9483EC20E034E04DE056E40E946CE861
:102DF00018160CF483C221962CAD3DAD4EAD5FADDF
:102E00002197C701B6010E9482EC4B015C01209121
:102E1000B7063091B8064091B9065091BA06C30181
:102E2000B2010E9482EC2B013C012091BB06309143
:102E3000BC064091BD065091BE066091C8037091DA
:102E4000C9038091CA039091CB030E9482EC219622
:102E50006CAF7DAF8EAF9FAF21972091BF063091B1
:102E6000C0064091C1065091C2066091CC0370919A
:102E7000CD038091CE039091CF030E9482EC2996DE
:102E80006CAF7DAF8EAF9FAF2997A5019401C501AF
:102E9000B4010E94D1E86B017C01A3019201C3013E
:102EA000B2010E94D1E89B01AC01C701B6010E94AA
:102EB00083EC6B017C0121962CAD3DAD4EAD5FAD39
:102EC0002197CA01B9010E94D1E89B01AC01C70159
:102ED000B6010E9483EC0E94EEEE6B017C012DEBAB
:102EE00037E346E855E30E946CE887FF08C029965F
:102EF000CCACDDACEEACFFAC2997E894F7F82DEB49
:102F000037E346E855E3C701B6010E946CE887FD48
:102F1000F5C125962CAD3DAD4EAD5FAD2597C701F2
:102F2000B6010E945FED2091A7123091A812409146
:102F3000A9125091AA120E94D1E80E94CCED1B0167
:102F4000672B19F422242394312CB10180E090E006
:102F50000E9470E89B01AC0160E070E080E89FE3B4
:102F60000E945FED6B017C019B01AC01C501B401C6
:102F70000E94D1E868A379A38AA39BA3A701960125
:102F8000C301B2010E94D1E86CA37DA38EA39FA3CD
:102F9000A701960121966CAD7DAD8EAD9FAD2197B9
:102FA0000E94D1E868A779A78AA79BA7A7019601E5
:102FB00029966CAD7DAD8EAD9FAD29970E94D1E86D
:102FC0006CA77DA78EA79FA720E1E3EBF6E0CE01DB
:102FD0000196DC0101900D922A95E1F72A968FAFB8
:102FE0002A972E969FAF2E97DE015196BCAFABAFBE
:102FF00021E0221A310809F46AC1AE01405E5F4F38
:103000007A012A960FAD2A972E961FAD2E97F701BB
:1030100021913191419151917F01D8016D917D9123
:103020008D919C910E9483ECF8016193719381933F
:1030300091938F01ABACBCACEA15FB0541F7209135
:10304000EE033091EF034091F0035091F103698159
:103050007A818B819C810E9482EC21966CAF7DAF3E
:103060008EAF9FAF21972091F2033091F3034091EF
:10307000F4035091F5036D817E818F8198850E94C4
:1030800082EC29966CAF7DAF8EAF9FAF29972091D0
:10309000F6033091F7034091F8035091F9036985E5
:1030A0007A858B859C850E9482EC6B017C01219640
:1030B0002CAD3DAD4EAD5FAD219760918A09709109
:1030C0008B0980918C0990918D090E9482EC2B01D3
:1030D0003C0129962CAD3DAD4EAD5FAD2997609179
:1030E0008E0970918F0980919009909191090E94A9
:1030F00082EC4B015C01A3019201C301B2010E9469
:10310000D1E82B013C01A5019401C501B4010E9445
:10311000D1E89B01AC01C301B2010E9483EC9B0189
:10312000AC016091A2097091A3098091A4099091CA
:10313000A5090E9482EC0E94EEEE9B01AC01C70142
:10314000B6010E9483EC6093C3067093C40680931B
:10315000C5069093C60621962CAD3DAD4EAD5FAD34
:1031600021976091920970919309809194099091AF
:1031700095090E9482EC2B013C0129962CAD3DADB6
:103180004EAD5FAD29976091960970919709809136
:103190009809909199090E9482EC4B015C01A3016E
:1031A0009201C301B2010E94D1E82B013C01A501AB
:1031B0009401C501B4010E94D1E89B01AC01C30197
:1031C000B2010E9483EC9B01AC016091A609709151
:1031D000A7098091A8099091A9090E9482EC0E94F8
:1031E000EEEE9B01AC01C701B6010E9483EC609337
:1031F000C7067093C8068093C9069093CA062196A5
:103200002CAD3DAD4EAD5FAD219760919A097091A7
:103210009B0980919C0990919D090E9482EC4B0131
:103220005C0129962CAD3DAD4EAD5FAD2997609107
:103230009E0970919F098091A0099091A1090E9417
:1032400082EC2B013C01A5019401C501B4010E944F
:10325000D1E84B015C01A3019201C301B2010E94BC
:10326000D1E89B01AC01C501B4010E9483EC9B0134
:10327000AC016091AA097091AB098091AC09909161
:10328000AD090E9482EC0E94EEEE9B01AC01C701E9
:10329000B6010E9483EC6093CB067093CC068093BA
:1032A000CD069093CE06C090460F2596ECACFDACB3
:1032B0000EAD1FAD25979E01235F3F4F4BEC56E0AF
:1032C00067EC76E083EC96E00E940ECE91CEC09043
:1032D000460F80EC93E00E9497852596ECACFDAC00
:1032E0000EAD1FAD25972CEC33E04BEC56E067ECB0
:1032F00076E083EC96E00E940ECE03C011110C9490
:10330000712E0E94F47E0C94712E112311F40C94F2
:10331000712E11E0029709F010E00E94F36A82E535
:103320000E944393882309F45CC10E94E1926B01DF
:103330007C014090B3065090B4066090B506709042
:10334000B6068091B7069091B806A091B906B091E3
:10335000BA0625968CAF9DAFAEAFBFAF2597209133
:10336000C0033091C1034091C2035091C303219621
:103370002CAF3DAF4EAF5FAF21978091C4039091CA
:10338000C503A091C603B091C70329968CAF9DAF2A
:10339000AEAFBFAF299720E030E0A901C701B60169
:1033A0000E946CE8882309F418C5A30192012196B4
:1033B0006CAD7DAD8EAD9FAD21970E946CE8811103
:1033C00011C025962CAD3DAD4EAD5FAD259729962C
:1033D0006CAD7DAD8EAD9FAD29970E946CE88823C2
:1033E00009F4FBC420E030E0A901C701B6010E9446
:1033F0006CE8881F8827881F18130BC020E030E076
:1034000040E85FE369962CAF3DAF4EAF5FAF699781
:103410000AC080E090E0A0E8BFEB69968CAF9DAF5A
:10342000AEAFBFAF6997A301920121966CAD7DADA0
:103430008EAD9FAD21970E9482EC61966CAF7DAFFF
:103440008EAF9FAF619725962CAD3DAD4EAD5FAD74
:10345000259729966CAD7DAD8EAD9FAD29970E94C5
:1034600082EC65966CAF7DAF8EAF9FAF659761962E
:103470002CAD3DAD4EAD5FAD6197CA01B9010E9463
:10348000D1E84B015C0165962CAD3DAD4EAD5FAD15
:103490006597CA01B9010E94D1E89B01AC01C50141
:1034A000B4010E9483EC0E94EEEE2D966CAF7DAFCE
:1034B0008EAF9FAF2D9720E030E040E05FE30E94A9
:1034C000D1E84B015C01A7019601C701B6010E943A
:1034D000D1E86B017C01A5019401C501B4010E94F2
:1034E000D1E89B01AC01C701B6010E9482EC0E94A9
:1034F000EEEE9B01AC0169966CAD7DAD8EAD9FADDE
:1035000069970E94D1E84B015C0121962CAD3DAD3D
:103510004EAD5FAD2197C301B2010E9483EC20E064
:1035200030E040E05FE30E94D1E86B017C016596EA
:103530006CAD7DAD8EAD9FAD659790582D962CAD41
:103540003DAD4EAD5FAD2D970E945FED9B01AC018F
:10355000C501B4010E94D1E89B01AC01C701B601CD
:103560000E9483ECA30192010E9482EC6B017C011A
:1035700029962CAD3DAD4EAD5FAD299725966CAD2E
:103580007DAD8EAD9FAD25970E9483EC20E030E0AD
:1035900040E05FE30E94D1E82B013C012D962CAD69
:1035A0003DAD4EAD5FAD2D9761966CAD7DAD8EADF1
:1035B0009FAD61970E945FED9B01AC01C501B40115
:1035C0000E94D1E89B01AC01C301B2010E9483ECCF
:1035D00025962CAD3DAD4EAD5FAD25970E9482EC9A
:1035E00014C089E40E944393882329F00E94E19249
:1035F0006B017C0103C0C12CD12C76018AE40E94AE
:1036000043938823F9F00E94E19229966CAF7DAF35
:103610008EAF9FAF299720E030E0A901C701B60126
:103620000E946CE881111EC020E030E0A9012996BB
:103630006CAD7DAD8EAD9FAD29970E946CE8811178
:1036400011C0CBC320E030E0A901C701B6010E9440
:103650006CE8882309F4C1C329961CAE1DAE1EAECA
:103660001FAE2997A7019601505825962CAF3DAF64
:103670004EAF5FAF259729968CAD9DADAEADBFAD7A
:103680002997B05821968CAF9DAFAEAFBFAF2197B1
:10369000CA01B9010E94D1E84B015C0121962CAD11
:1036A0003DAD4EAD5FAD2197CA01B9010E94D1E891
:1036B0009B01AC01C501B4010E9483EC0E94EEEEB7
:1036C000AD966CAF7DAF8EAF9FAFAD972091B30637
:1036D0003091B4064091B5065091B6062D962CAFA8
:1036E0003DAF4EAF5FAF2D97A70196012D966CAD04
:1036F0007DAD8EAD9FAD2D970E9483EC69966CAF2A
:103700007DAF8EAF9FAF69978091B7069091B80655
:10371000A091B906B091BA0665968CAF9DAFAEAFD9
:10372000BFAF659729962CAD3DAD4EAD5FAD2997E6
:10373000BC01CD010E9483EC6D966CAF7DAF8EAF66
:103740009FAF6D972091C0033091C1034091C20398
:103750005091C303A1962CAF3DAF4EAF5FAFA19781
:1037600069962CAD3DAD4EAD5FAD6997A1966CAD40
:103770007DAD8EAD9FADA1970E9482EC6B017C0167
:103780008091C4039091C503A091C603B091C70373
:10379000A5968CAF9DAFAEAFBFAFA5976D962CAD84
:1037A0003DAD4EAD5FAD6D97BC01CD010E9482EC89
:1037B0004B015C012091BB063091BC064091BD06D7
:1037C0005091BE06A9962CAF3DAF4EAF5FAFA99703
:1037D0006091C8037091C9038091CA039091CB0393
:1037E0000E9482EC61966CAF7DAF8EAF9FAF619708
:1037F0008091CC039091CD03A091CE03B091CF03E3
:10380000E1968CAF9DAFAEAFBFAFE1972091BF0601
:103810003091C0064091C1065091C206E5962CAF8A
:103820003DAF4EAF5FAFE597A701960125966CAD12
:103830007DAD8EAD9FAD25970E94D1E82B013C0157
:10384000A501940121966CAD7DAD8EAD9FAD219704
:103850000E94D1E89B01AC01C301B2010E9483EC3C
:103860002B013C01A501940125966CAD7DAD8EAD7B
:103870009FAD25970E94D1E84B015C01A7019601FD
:1038800021966CAD7DAD8EAD9FAD21970E94D1E8A4
:103890009B01AC01C501B4010E9482ECA30192011D
:1038A0000E94F6EC6B017C0120E030E0A9010E944F
:1038B0006CE887FF0AC02BED3FE049EC50E4C701FC
:1038C000B6010E9483EC6B017C01112351F02BEDBA
:1038D0003FE049EC50E4C701B6010E9482EC6B0165
:1038E0007C0120E030E0A901C701B6010E946CE82C
:1038F000811128C0A1962CAD3DAD4EAD5FADA19715
:103900002D966CAD7DAD8EAD9FAD2D970E946CE870
:10391000811118C0A5962CAD3DAD4EAD5FADA597FC
:1039200065966CAD7DAD8EAD9FAD65970E946CE8E0
:10393000811108C07BEDC72E7FE0D72E79ECE72EF2
:1039400070E4F72EAD962CAD3DAD4EAD5FADAD97AD
:10395000C701B6010E94D1E89B01AC010E94D1E8E9
:103960004B015C0161962CAD3DAD4EAD5FAD6197F5
:10397000CA01B9010E94D1E89B01AC01C501B401A3
:103980000E9483EC0E94EEEE4B015C012FE632E1D7
:1039900043E85AE30E946CE887FD1BC2C501B401ED
:1039A0000E94F8ED0E94CCED1B01672B19F4222434
:1039B0002394312CB10180E090E00E9470E84B012B
:1039C0005C019B01AC01C701B6010E945FED2D9621
:1039D0006CAF7DAF8EAF9FAF2D97A501940161961F
:1039E0006CAD7DAD8EAD9FAD61970E945FEDAD96E4
:1039F0006CAF7DAF8EAF9FAFAD97E5962CAD3DAD73
:103A00004EAD5FADE597E1966CAD7DAD8EAD9FADF2
:103A1000E1970E9482ECA50194010E945FEDE1967E
:103A20006CAF7DAF8EAF9FAFE1972D962CAD3DADC6
:103A30004EAD5FAD2D97CA01B9010E94D1E820E0DB
:103A400030E040E05FE30E94D1E89B01AC0160E020
:103A500070E080E89FE30E9482ECA1966CAF7DAF9E
:103A60008EAF9FAFA197A9968CAD9DADAEADBFAD0A
:103A7000A99789879A87AB87BC87E5962CAD3DAD22
:103A80004EAD5FADE5972D873E874F87588B609190
:103A90004E0270914F02072E000C880B990B0E946A
:103AA00072E820910002309101024091020250918F
:103AB00003020E94D1E82AE037ED43E25CE30E9472
:103AC000D1E8A5966CAF7DAF8EAF9FAFA5970E9452
:103AD0009A509B01AC0128533F4F4F4F5F4FA9961F
:103AE0002CAF3DAF4EAF5FAFA99722964FAC229758
:103AF00023965FAC239724966FAC249725967FACD2
:103B0000259741E050E063965FAF4EAF639759E170
:103B10002E965FAF2E976396AEACBFAC6397A214A0
:103B2000B30409F43EC10E94CA420E949A50DC01CB
:103B3000CB01A9962CAD3DAD4EAD5FADA997821BD3
:103B4000930BA40BB50BB7FD10C00E949A509B01BC
:103B5000AC0128533F4F4F4F5F4FA9962CAF3DAF5D
:103B60004EAF5FAFA9970E94F3822E963FAD2E977E
:103B700031502E963FAF2E97332309F44BC0A196B8
:103B80002CAD3DAD4EAD5FADA19721966CAD7DAD39
:103B90008EAD9FAD21970E94D1E86B017C012D96DF
:103BA0002CAD3DAD4EAD5FAD2D97B201C3010E946E
:103BB000D1E8A70196010E9483EC6B017C01A196DC
:103BC0002CAD3DAD4EAD5FADA197B201C3010E94DA
:103BD000D1E84B015C012D962CAD3DAD4EAD5FADF6
:103BE0002D9721966CAD7DAD8EAD9FAD21970E9436
:103BF000D1E89B01AC01C501B4010E9482EC2B010C
:103C00003C01C601D70121968CAF9DAFAEAFBFAFCF
:103C1000219761C06396AEACBFAC6397B50180E0FD
:103C200090E00E9470E82D962CAD3DAD4EAD5FAD9D
:103C30002D970E94D1E84B015C010E945CED6B0165
:103C40007C01C501B4010E94E4EE4B015C01A701B7
:103C5000960125966CAD7DAD8EAD9FAD25970E94EA
:103C6000D1E82B013C01A501940129966CAD7DADF5
:103C70008EAD9FAD29970E94D1E89B01AC01C30195
:103C8000B2010E9483EC2B013C01A5019401259611
:103C90006CAD7DAD8EAD9FAD25970E94D1E84B01F7
:103CA0005C01A701960129966CAD7DAD8EAD9FADEF
:103CB00029970E94D1E89B01AC01C501B4010E9483
:103CC00082EC21966CAF7DAF8EAF9FAF219729E13B
:103CD0002E962FAF2E979201A30169966CAD7DAD04
:103CE0008EAD9FAD69970E9483EC69837A838B8345
:103CF0009C8321962CAD3DAD4EAD5FAD21976D9669
:103D00006CAD7DAD8EAD9FAD6D970E9483EC6D83E4
:103D10007E838F839887AD962CAD3DAD4EAD5FAD64
:103D2000AD9769857A858B859C850E9483EC698730
:103D30007A878B879C87E1962CAD3DAD4EAD5FAD0C
:103D4000E1976D857E858F8598890E9483EC6D87CC
:103D50007E878F87988BCE0101960E94B087C09096
:103D6000460FCE0101960E949785A596ECACFDAC5E
:103D70000EAD1FADA5979E01235F3F4F4BEC56E064
:103D800067EC76E083EC96E00E940ECE63964EAD33
:103D90005FAD63974F5F5F4F63965FAF4EAF6397C3
:103DA000BACEC090460F80EC93E00E949785A5960E
:103DB000ECACFDAC0EAD1FADA5972CEC33E04BEC9D
:103DC00056E067EC76E083EC96E00E940ECE0E940F
:103DD000F47E0E9455930C94712EEAE1FFE08491E9
:103DE0008F010F5F1F4F882321F00E946093F8011D
:103DF000F6CFE3E1F2E084918F010F5F1F4F88233C
:103E000011F40C94712E0E946093F801F4CF80E5B8
:103E10000E944393882329F00E94A1926B017C01A8
:103E200003C0C12CD12C760183E50E9443938823E3
:103E300061F00E94E19220E030E04AE754E40E9401
:103E4000D1E80E94CCED6B017C010E94BF9780916C
:103E50005002811105C060E089E292E00E94E556BF
:103E60000E9455938091B5099091B609A091B70928
:103E7000B091B809C80ED91EEA1EFB1E0E949A50C6
:103E8000DC01CB018C199D09AE09BF09B7FD02C049
:103E90000C94712E0E94F382F1CF0E94BF97109272
:103EA000E8030E94D16B81E08093C4040E94076AFA
:103EB0008091A2128093C4048091D2039091D30385
:103EC000A091D403B091D503809300029093010296
:103ED000A0930202B09303028091D0039091D1038A
:103EE00090934F0280934E020E94559383E08093FB
:103EF0002E020E9439C90C94712E1092E7030C9483
:103F0000712E81E08093E7030C94712E85E40E946A
:103F10004393B82E811102C00E94BF973FE8832EC1
:103F200032E0932E43EBC42E46E0D42E56EDE52E20
:103F300053E0F52E00E010E0A12CD4018D914D014D
:103F40000E9443938823F1F1F6012081318142815F
:103F50005381E6962FAFE697E7963FAFE797E8964F
:103F60004FAFE897E9965FAFE9970E94E192D601DB
:103F70006D937D938D939C931397E6962FADE69763
:103F8000E7963FADE797E8964FADE897E9965FADC6
:103F9000E99703301105B1F00E9482EC9B01AC015E
:103FA000F70160817181828193810E9483ECD70146
:103FB0006D937D938D939C931397C8010E942D91CF
:103FC000AA24A3940F5F1F4FB4E0CB0ED11CE4E0F2
:103FD000EE0EF11C0430110509F0AFCFAA2019F044
:103FE0000E941C6037C0BB20A9F1C090BF06D090D2
:103FF000C006E090C106F090C20620919B0F309160
:104000009C0F40919D0F50919E0FC701B6010E94D9
:10401000D1E80E94B4EE6093DB0F7093DC0F8093C5
:10402000DD0F9093DE0FC701B6010E94C7ED2FB7D9
:10403000F8946093430470934404809345049093F0
:1040400046042FBF1092CB0F1092CC0F1092CD0FC1
:104050001092CE0F0E9439C90C94712E8091EB03FF
:104060009091EC038037910509F4F6C50CF0AFC0D0
:104070008A32910509F4CFC40CF05DC087319105F7
:1040800009F453C284F58231910509F4D8C6F4F4D9
:1040900097FF02C00C94712E823091050CF470C110
:1040A000419711F00C94712E60E088E692E00E9436
:1040B000E5565F988A989FB7F894809108018E7FA3
:1040C000809308019FBF12980C94712E8531910541
:1040D00009F421C20CF023C2449711F00C94712E04
:1040E000E8E8F2E0D5C18B31910509F450C23CF407
:1040F0008931910509F437C20CF42AC23AC28E31D3
:10410000910509F480C274F44C9711F00C94712E4F
:1041100040E060E08091E9039091EA030E946D5BCA
:104120000C94712E8F31910509F4CFC3809709F457
:1041300082C30C94712E8C35910509F4CEC634F5EA
:104140008135910509F45EC68CF48C34910509F42F
:10415000A1C48D34910509F4A1C48B34910511F0EB
:104160000C94712E0E9445600C94712E833591053C
:1041700009F461C60CF45CC68435910509F45FC688
:104180008535910509F490C60C94712E8B369105F6
:1041900009F428C664F48936910509F4A7C50CF022
:1041A00004C68836910509F47DC40C94712E8D36B1
:1041B000910509F4E1C50CF44BC58E36910509F45F
:1041C000C8C48F36910509F4D7C40C94712E8C3D68
:1041D000910511F40C94062D0CF068C08C389105F3
:1041E00009F46EC54CF58537910509F492C774F44E
:1041F0008237910509F4F9C60CF436C58337910569
:1042000011F00C94712EEFECF4E0F4C687379105B1
:1042100009F4BEC70CF485C78837910511F40C94D6
:104220004C298937910511F00C94712E1092C40419
:104230001092A2120C94712E893C910511F40C94E9
:10424000F82984F48B39910509F46DC5883C9105F2
:1042500011F40C94B0298139910511F00C94712E50
:104260000C9452298C3C910511F40C94302A84F45E
:104270008B3C910511F00C94712E33E5E32E3FE059
:10428000F32E0FE812E044E0D42ED00E0C94202A36
:104290008D3C910511F40C949A2A833D910511F0FF
:1042A0000C94712EE7EBF2E20C94702C8A39F1E059
:1042B0009F0709F4D5C48CF58D3231E0930711F4D2
:1042C0000C94322D94F4823E910511F40C942C2D13
:1042D0008C3251E0950711F40C942F2D8D3D9105F2
:1042E00011F00C94712E0C94132D8F32A1E09A07CB
:1042F00011F40C94D32D14F40C94D02D8336E1E0FA
:104300009E0711F40C94EA2D8039914011F00C9421
:10431000712E0E94BF970C94712E873F21E0920767
:1043200011F40C94DC2D94F4853F41E0940711F4D2
:104330000C94D62D14F00C94D92D843F914011F09B
:104340000C94712E0E94E1A50C94712E8A39B2E072
:104350009B0711F40C94C22B3CF48939924011F460
:104360000C94052B0C94712E803A23E0920709F4EB
:104370009FC2873E934011F40C94032E0C94712E2F
:10438000A090E903B090EA0380E50E94439388235C
:1043900059F00E94A1926B017C0111E0672B682B00
:1043A000692B31F410E004C010E0C12CD12C76014F
:1043B00083E50E9443938823F1F00E94E19220E07C
:1043C00030E04AE754E40E94D1E80E94CCED6B0152
:1043D0007C01111112C0672B682B692B71F4A11499
:1043E000B10459F0D5018C91882339F061E0C50101
:1043F0000E94035707C0112391F360E08AE592E021
:104400000E94E55683E090E09093FB038093FA03CB
:1044100081E080937A060E94BF970E945593C11451
:10442000D104E104F104E9F08091B5099091B60955
:10443000A091B709B091B809C80ED91EEA1EFB1E9B
:104440000E949A50DC01CB018C199D09AE09BF096D
:10445000B7FF1AC080917A068823B1F00E94F382D8
:10446000EFCF80917A06882319F00E94F382F9CF6A
:1044700080910F1060E0882319F08AE492E002C076
:1044800088E392E00E94E55610927A060C94712E11
:1044900084918F010F5F1F4F882321F00E9460934A
:1044A000F801F6CF109295121092941240E050E06D
:1044B000BA0180E490E10E94C7468BE1E0E4F0E1BC
:1044C000DE01159601900D928A95E1F780913E10DC
:1044D00090913F109C838B838DEE92E09A83898329
:1044E00040E050E0BE016F5F7F4F8FE593E00E9498
:1044F00013BACE0101960E948B82E9E7F2E0849123
:104500008F010F5F1F4F882311F40C94712E0E94AE
:104510006093F801F4CF0E949F5E0C94712E10926C
:104520000F10109210100C94712E8091E90390914D
:10453000EA03FC012081222329F0203209F41082B1
:104540003196F8CF40E061E00E946D5B0C94712ED3
:1045500080911010882319F081E080930F100E9441
:1045600045600C94712E10920F100E9485600C947F
:10457000712E80911010882311F40C94712E83E514
:104580000E94439381110C94822E0C94712E809181
:104590001010882351F1E9E9F2E084918F010F5F57
:1045A0001F4F882321F00E946093F801F6CF60919D
:1045B0008B1270918C1280918D1290918E124AE024
:1045C0000E9467938FE20E946093609187127091BE
:1045D00088128091891290918A124AE00E94679312
:1045E0008AE00E9460930C94712EEBEAF2E08491D1
:1045F0008F010F5F1F4F882311F40C94712E0E94BE
:104600006093F801F4CF80911010882311F40C947A
:10461000712E8AED91E10E9486468AED91E10E9419
:10462000124D10920E1010920D10E090E903F090D0
:10463000EA0380911010882311F40C94712E0E94CB
:1046400023B81D8218861C821B828DEE92E09A830D
:1046500089838CE390E190935C1080935B10F70169
:1046600080818F3209F068C06FE270E0C7010E945C
:10467000D8EF8C010F5F1F4F9E012F5F3F4F490105
:104680000115110509F45EC06FE270E0C8010E94D7
:10469000D8EF6C01009709F456C00817190708F005
:1046A00052C05C01A01AB10AA501B801CE018096E2
:1046B0000E9401F0E0E2F0E0EC0FFD1FEA0DFB1DAF
:1046C00010828E01005E1F4FD8018D918D018823CD
:1046D00019F00E946093F8CF8AE00E946093609185
:1046E0005B1070915C106115710511F06C5F7F4F6C
:1046F00021E0AE01405E5F4FCE0105960E941A4D4B
:10470000811112C0BE01605E7F4F82EE92E00E9476
:10471000419F8EE20E9460938AE00E946093C401F0
:104720000E948B820C94712E90925C1080925B1090
:1047300086010F5F1F4FA4CF8DE590E190935C1031
:1047400080935B10870160915B1070915C10611524
:10475000710511F06C5F7F4F18A21BA222E0A80127
:10476000CE0180960E941A4D811102C0F12C1EC00C
:10477000CE0180960E9491B78823C1F36CA57DA5D8
:104780008EA59FA541E00E94D644882379F3E8A92D
:10479000B0E2EB9FF0011124E153F94F309731F370
:1047A00085EE80831BA20E949644F82ECE0180964F
:1047B0000E944F93FF2009F1ECEBF2E084917F011E
:1047C0002FEFE21AF20A882321F00E946093F7018A
:1047D000F5CFD8018D918D01882319F00E94609347
:1047E000F8CF8AE00E94609310928B1210928C1284
:1047F00010928D1210928E1218C0EAECF2E08491A1
:104800007F01BFEFEB1AFB0A882321F00E9460931F
:10481000F701F5CFF80181918F01882319F00E94EB
:104820006093F8CF8EE20E946093CE0101960E94C1
:104830008B820C94712E80910F1081110E94BF9772
:10484000E090E903F090EA0380E50E941493182FAA
:10485000882319F00E94D292182F8091101088237B
:1048600011F40C94712E412F61E0C7010E946D5B21
:1048700083E50E944393882381F00E94B192AB01AB
:10488000BC0140938B1250938C1260938D127093E5
:104890008E128AED91E10E94C74680911010882304
:1048A00019F081E080930F1011110C94712E57CEE6
:1048B0008091E9039091EA0321E020930E1040E0FB
:1048C00060E00E946D5B0C94712E0E94DDB92CE3B8
:1048D000C22ED12CE12CF12CA70196010E9447ECAD
:1048E000762E672ECA01B901A70196010E9447ECF6
:1048F0006B017C01CA01B90128E130E040E050E0E1
:104900000E9447EC4B015C01C9016DE671E00E9419
:1049100047EF8E010F5F1F4F6115710599F06F9280
:104920007F92DF92CF929F928F929F938F937F93EC
:104930006F938EE193E09F938F931F930F930E9449
:1049400005E812C00097B1F06F927F92DF92CF928C
:104950009F928F929F938F938EE093E09F938F937C
:104960001F930F930E9405E80FB6F894DEBF0FBEA9
:10497000CDBF36C081149104A104B10479F06F92C7
:104980007F92DF92CF929F928F9282E093E09F93EB
:104990008F931F930F930E9405E8E6CFC114D104B3
:1049A000E104F10469F06F927F92DF92CF928AEF77
:1049B00092E09F938F931F930F930E9405E8D4CFAB
:1049C0006F927F9286EF92E09F938F931F930F9346
:1049D0000E9405E80F900F900F900F900F900F908E
:1049E00060E0C8010E940357E7EBF2E284917F0187
:1049F000BFEFEB1AFB0A882321F00E946093F701B6
:104A0000F5CFB80182E393E00E94419F8AE00E94C3
:104A100060930C94712E83E50E944393882311F4D4
:104A20000C94712E0E94C192E82E80E50E9443935F
:104A3000882339F00E94B1928B0177FF04C00C9457
:104A4000712E0DE010E0902FEFE3F3E088E28E0F7F
:104A50002491921729F031968E13FACF0C94932E4D
:104A6000EAE1FFE084918F010F5F1F4F882321F05F
:104A70000E946093F801F6CFE7E6F3E084918F019E
:104A80000F5F1F4F882311F40C94712E0E946093C6
:104A9000F801F4CF0E9485600C94712E0E942EB80C
:104AA0000C94712E88E690E00E94CD9381110C94B5
:104AB000712E8091C21283FF02C00C94712E83E587
:104AC0000E944393882309F440C00E94E1920E940F
:104AD000C7ED7093EF086093EE0880E00E94BD4040
:104AE0000E94E19220E030E040EA52E40E946CE84B
:104AF00018163CF00E942EB860E08DE793E00E940B
:104B0000E5560E94E19220914D0430914E0440916F
:104B10004F04509150040E94A9EE1816B4F480E19D
:104B200093E09F938F938091E20390E001969F938F
:104B30008F9386E793E09F938F931F920E942A6042
:104B40000FB6F894DEBF0FBECDBF0E94AFE20C944B
:104B5000712E8EE40E944393882311F40C94712EDD
:104B60000E94B192609386097093870980938809A7
:104B7000909389090C94712E83E50E9443938823B6
:104B800019F00E94C19201C080E08093C212E7EB4D
:104B9000F2E284918F010F5F1F4F882321F00E9462
:104BA0006093F801F6CFEDE9F3E084918F010F5F98
:104BB0001F4F882321F00E946093F801F6CF809167
:104BC000C2128823A1F10FE8C02E03E0D02EE12C01
:104BD000F12C20E08091C21290E00E2C02C095953D
:104BE00087950A94E2F780FF17C0BB24B394B20EF6
:104BF000222319F08CE20E946093F60125913491F2
:104C0000F901849189010F5F1F4F882321F00E94D1
:104C100060939801F5CF2B2DFFEFEF1AFF0A32E0DA
:104C2000C30ED11C45E0E416F104A1F60CC0E9E97D
:104C3000F3E084918F010F5F1F4F882321F00E94C2
:104C40006093F801F6CF8AE00E9460930C94712E75
:104C500010924B020C94712E84EA93E00E94A4827D
:104C60000E948FC40C94712E83E50E944393882385
:104C700069F00E94C192809341028D3310F40C942C
:104C8000712E8CE3809341020C94712EE7EBF2E2DB
:104C900084918F010F5F1F4F882321F00E94609342
:104CA000F801F6CF4091410250E060E070E08DEAFB
:104CB00093E00E94D19E8AE00E9460930C94712E32
:104CC0008091C21283FF02C00C94712E83E50E9472
:104CD0004393882311F40C94712E0E94E1920E9458
:104CE000C7ED7093480460934704FBC789E690E0E2
:104CF0000E94CD93811111C0E4EBF3E084918F0108
:104D00000F5F1F4F882321F00E946093F801F6CFB8
:104D10000E94F8C98AE00E9460931092FB031092EF
:104D2000FA030C94683083E50E944393882309F4C6
:104D3000D8C70E94C1928093B2098D3318F08CE3DA
:104D40008093B2090E949A506B017C012091B209B4
:104D500030E0A8EEB3E00E9473ECDC01CB018C0DD7
:104D60009D1DAE1DBF1D8093AE099093AF09A0930A
:104D7000B009B093B109B5C78DE690E00E94CD931C
:104D80008111AFC78091C21283FF01C0AAC783E51A
:104D90000E94439326968FAF26978111D9C782E54B
:104DA0000E9443938111D4C79CC783E50E9443931B
:104DB000882339F00E94B1928B016F3F710519F081
:104DC00010F00FEF10E080E50E944393811105C0C1
:104DD0001093ED080093EC0884C70E94C1928111E2
:104DE00080C7F6CF80E50E944393811105C01092E1
:104DF000ED081092EC0875C70E94B192672B09F07C
:104E000070C7F5CF0E9408410E94BF970E9493820D
:104E10001092ED081092EC0868EE73E080E090E0EC
:104E20000E943D5660E085EE93E00E94E55659C72A
:104E30001092E60356C781E08093E60352C783E5EC
:104E40000E944393882399F00E94E19220E030E091
:104E50004AE754E40E94D1E80E94CCED60934202FC
:104E60007093430280934402909345023AC788E5C9
:104E70000E94149381110C943F3089E50E94149391
:104E800081110C943F308AE50E94149381110C9497
:104E90003F3085E40E94149381110C943F300E94AE
:104EA000BF970E9493821DC783E50E9414938823B5
:104EB00009F417C70E94E19220E030E04AE754E489
:104EC0000E94D1E80E94CCED6093B9097093BA09B1
:104ED0008093BB099093BC0904C7BFE8CB2EB2E016
:104EE000DB2E1FE8E12E1FE0F12E10E0D6018D91A0
:104EF0006D010E941493882309F46DC0133009F0EA
:104F000063C00E94E1924B015C0120E030E040EA86
:104F100051E40E946CE887FF4EC0A50194016091A6
:104F20009B0F70919C0F80919D0F90919E0F0E94FE
:104F30005FED2B013C019B01AC0160918B0F7091E7
:104F40008C0F80918D0F90918E0F0E94D1E860930D
:104F50008B0F70938C0F80938D0F90938E0FA30106
:104F6000920160915F0F7091600F8091610F90913D
:104F7000620F0E94D1E860935F0F7093600F80937F
:104F8000610F9093620F60914C0A70914D0A80916D
:104F90004E0A90914F0A0E9470E8A30192010E946C
:104FA000D1E80E94CCED60934C0A70934D0A809337
:104FB0004E0A90934F0A80929B0F90929C0FA09262
:104FC0009D0FB0929E0F07C00E94E192F70160838F
:104FD0007183828393831F5FF4E0EF0EF11C143022
:104FE00009F084CF0E94D39F7CC60E94BF970E9485
:104FF00039C977C684918F010F5F1F4F882321F035
:105000000E946093F801F6CFE1ECF4E084918F0107
:105010000F5F1F4F882321F00E946093F801F6CFA5
:10502000EAEAF4E084918F010F5F1F4F882321F09B
:105030000E946093F801F6CFEAE9F4E084918F01D1
:105040000F5F1F4F882321F00E946093F801F6CF75
:10505000E9E8F4E084918F010F5F1F4F882321F06E
:105060000E946093F801F6CFE8E7F4E084918F01A5
:105070000F5F1F4F882321F00E946093F801F6CF45
:10508000E9E6F4E084918F010F5F1F4F882321F040
:105090000E946093F801F6CFE4E5F4E084918F017B
:1050A0000F5F1F4F882321F00E946093F801F6CF15
:1050B000EEE3F4E084918F010F5F1F4F882321F00E
:1050C0000E946093F801F6CFE9E2F4E084918F0149
:1050D0000F5F1F4F882321F00E946093F801F6CFE5
:1050E000ECE0F4E084918F010F5F1F4F882321F0E3
:1050F0000E946093F801F6CFE4EFF3E084918F0112
:105100000F5F1F4F882309F4ECC50E946093F801DC
:10511000F5CF60E08091E9039091EA030E94035784
:10512000E0C585E40E941493882381F00E94D29206
:10513000882361F0E7EBF2E284918F010F5F1F4F4C
:10514000882321F00E946093F801F6CF81E40E9449
:105150001493882381F00E94D292882361F0E4E9BD
:10516000F5E084918F010F5F1F4F882321F00E948B
:105170006093F801F6CF0091E9031091EA03D8019A
:105180008D918D01882309F45ECD0E946093F7CF45
:10519000E8EBF5E084918F010F5F1F4F882321F02A
:1051A0000E946093F801F6CFE0EBF5E084918F0167
:1051B0000F5F1F4F882321F00E946093F801F6CF04
:1051C000649903C001E013E002C006E013E0F801B7
:1051D00081918F01882319F00E946093F8CF8AE0B3
:1051E0000E946093E8EAF5E084918F010F5F1F4F02
:1051F000882321F00E946093F801F6CF809103018B
:1052000080FD03C001E013E002C006E013E0D80116
:105210008D918D01882319F00E946093F8CF8AE068
:105220000E946093E0EAF5E084918F010F5F1F4FC9
:10523000882321F00E946093F801F6CF4B9903C0B8
:1052400001E013E002C006E013E0F80181918F0154
:10525000882319F00E946093F8CF8AE00E9460933F
:10526000E8E9F5E084918F010F5F1F4F882321F05B
:105270000E946093F801F6CF4A9903C001E013E061
:1052800002C006E013E0D8018D918D01882309F456
:10529000DACC0E946093F7CF81E08093C4048093BE
:1052A000A2121FC583E50E944393882319F00E9430
:1052B000B19202C060E070E08B011127023011054D
:1052C000CCF0EAE1FFE084918F010F5F1F4F88234C
:1052D00021F00E946093F801F6CFE2EDF5E08491B1
:1052E0008F010F5F1F4F882309F4FBC40E94609356
:1052F000F801F5CF88E40E9443938823A9F00E9427
:10530000B192603A71053CF06530B1E07B072CF05A
:1053100064E071E002C060EA70E0F801EE0FFF1F88
:10532000E051F74F7183608386E40E9443938823A2
:1053300009F4D7C40E94B192000F111FF801EC507C
:10534000F74F718360836F3F710519F014F06FEFB1
:1053500070E077FF02C060E070E071836083C1C4D9
:1053600088EC90E00E94CD938111BBC484E40E943C
:1053700014938823D1F10E94E19211E020E030E003
:10538000A9010E946CE8811101C010E01093CB09C3
:10539000112359F10091E20310E00E94E192000F05
:1053A000111F000F111FF801E953F64F608371833D
:1053B0008283938320E030E0A9016091C709709156
:1053C000C8098091C9099091CA090E946CE88111AD
:1053D0000CC080E090E0A0E4B0E48093C709909313
:1053E000C809A093C909B093CA090E94FE7E79C476
:1053F00053E6E52E5FE0F52E0FE812E064E0D62ECE
:10540000D00EF80181918F010E941493882351F0EE
:105410000E94E1920E94CCEDD7016D937D938D9314
:105420009C931397B4E0EB0EF11CD012EACF0E94CC
:10543000699F57C4B4E0EB0EF11CD01609F451C4B7
:10544000F80181918F010E941493882399F30E949F
:10545000E192D7016D937D938D939C931397EACF3F
:1054600083E50E9414938823D9F00E94E192AB0156
:10547000BC0140937B0F50937C0F60937D0F709322
:105480007E0F4093730F5093740F6093750F70935A
:10549000760F8EE496E00E940B9F8AE00E94609354
:1054A00080E50E941493882399F00E94E192AB0159
:1054B000BC0140937B0F50937C0F60937D0F7093E2
:1054C0007E0F81E396E00E940B9F8AE00E9460932A
:1054D00082E50E941493882399F00E94E192AB0127
:1054E000BC014093770F5093780F6093790F7093BE
:1054F0007A0F82E196E00E940B9F8AE00E946093FF
:1055000084E50E941493882309F4EBC30E94E1927E
:10551000AB01BC014093730F5093740F6093750FF0
:105520007093760F84EF95E00E940B9F8AE00E94B3
:105530006093D7C383E50E941493882351F00E949F
:10554000E19260934F0F7093500F8093510F90939F
:10555000520F84E50E941493882351F00E94E19237
:1055600060934B0F70934C0F80934D0F90934E0FA1
:1055700082E40E941493882351F00E94A1926093C8
:10558000AB127093AC128093AD129093AE1288E57B
:105590000E941493882351F00E94E19260937F0F40
:1055A0007093800F8093810F9093820F89E50E9402
:1055B0001493882351F00E94E1926093830F7093BB
:1055C000840F8093850F9093860F8AE50E94149331
:1055D000882351F00E94E1926093870F7093880FA7
:1055E0008093890F90938A0F85E40E9414938823F7
:1055F00009F477C30E94E19260938B0F70938C0F34
:1056000080938D0F90938E0F6CC388E40E94149347
:105610008823D1F00E94E19220E030E049E853E491
:105620000E9482EC20E030E044E352E40E9482ECED
:1056300060932004709321048093220490932304A8
:1056400082E090E00E942D918CE40E9414938823C4
:1056500051F00E94E192609324047093250480939A
:1056600026049093270482E50E941493882351F026
:105670000E94E192609308047093090480930A04E5
:1056800090930B0483E50E941493882351F00E94A9
:10569000E1926093A7127093A8128093A91290933D
:1056A000AA1282E40E941493882351F00E94E1928E
:1056B0006093FC037093FD038093FE039093FF03BC
:1056C00088E50E941493882351F00E94E192609330
:1056D000000470930104809302049093030489E50D
:1056E0000E941493882351F00E94E1926093040475
:1056F0007093050480930604909307048AE50E9442
:105700001493882361F10E94E1929B01AC016091A6
:1057100000047091010480910204909103040E949E
:1057200082EC6093000470930104809302049093D0
:1057300003040E94E1929B01AC016091040470910A
:10574000050480910604909107040E9482EC609306
:105750000404709305048093060490930704209139
:10576000240430912504409126045091270460912F
:1057700008047091090480910A0490910B040E941E
:10578000E586AFC29CE0E92E94E0F92E0FE812E026
:1057900023E0D22ED00EF80181918F010E94149344
:1057A000882341F00E94E192D7016D937D938D9300
:1057B0009C931397B4E0EB0EF11CD012ECCFE09069
:1057C0000C04F0900D0400910E0410910F04A090B1
:1057D0001004B0901104C0901204D09013049501ED
:1057E000A601B701C8010E94A9EE18162CF0BA2D27
:1057F000AB2DFC2DED2D04C0BE2DAF2DF02FE12FD4
:105800006090140470901504809016049090170412
:105810009301A4016B2F7A2F8F2F9E2F0E94A9EE48
:1058200018165CF49501A601B701C8010E94A9EE03
:1058300018162CF07501860102C0730184019701CE
:10584000A80160912004709121048091220490911C
:1058500023040E9482EC60932004709321048093BF
:105860002204909323049701A80160910C04709185
:105870000D0480910E0490910F040E9482EC6093BD
:105880000C0470930D0480930E0490930F04970101
:10589000A8016091100470911104809112049091FC
:1058A00013040E9482EC609310047093110480939F
:1058B0001204909313049701A8016091140470914D
:1058C000150480911604909117040E9482EC609355
:1058D000140470931504809316049093170401C266
:1058E00084918F010F5F1F4F882321F00E946093E6
:1058F000F801F6CF83E50E941493882321F00E94DB
:10590000D29280932002EEE9F6E084918F010F5F3E
:105910001F4F882321F00E946093F801F6CF8091F9
:105920002002811103C0EAE9F6E002C0E6E9F6E0F0
:1059300084918F010F5F1F4F882321F00E94609395
:10594000F801F6CFEEE8F6E084918F010F5F1F4F6C
:10595000882321F00E946093F801F6CF4091140251
:105960005091150260911602709117028CE896E032
:105970000E940B9F409118025091190260911A02E7
:1059800070911B0289E896E00E940B9F40911C02D7
:1059900050911D0260911E0270911F0286E896E0F0
:1059A0000E940B9FEEE7F6E084918F010F5F1F4F7F
:1059B000882321F00E946093F801F6CF40910802FD
:1059C0005091090260910A0270910B028CE796E0F7
:1059D0000E940B9F40910C0250910D0260910E02AB
:1059E00070910F0289E796E00E940B9F4091100290
:1059F00050911102609112027091130286E796E0B5
:105A00000E940B9F8AE00E9460936BC183E50E9415
:105A10004393882309F465C10E94B19270934F02A9
:105A200060934E025EC18DED90E00E94CD93811196
:105A300058C183E50E944393882309F452C1009121
:105A4000E20310E00E94B192000F111FF801E45B25
:105A5000FD4F7183608345C10E94DEC842C10E9430
:105A6000A9C83FC185E40E944393811110C080E51D
:105A70000E941493882391F00E94E1926093DF08C2
:105A80007093E0088093E1089093E20807C00E94B9
:105A9000C192882361F3EAE1FFE071C089E40E94CA
:105AA0001493882381F00E94E1922CEA35EC47E2BE
:105AB0005EE30E94D1E86093E7087093E808809362
:105AC000E9089093EA0884E40E941493882381F003
:105AD0000E94E1922CEA35EC47E25EE30E945FED22
