:100000000C94B9160C94EA160C94EA160C94EA16A1
:100010000C94EA160C94EA160C94EA160C94EA1660
:100020000C94EA160C94EA160C94EA160C94EA1650
:100030000C94EA160C94EA160C94EA160C94EA1640
:100040000C94EA160C945CBD0C94EA160C94EA1617
:100050000C94EA160C94EA160C94BCDB0C94C7F8CA
:100060000C94EA160C94613D0C94EA160C94EA1672
:100070000C94EA160C94EA160C94EA160C94EA1600
:100080000C94EA160C94EA160C94EA160C94EA16F0
:100090000C94EA160C94EA160C94EA160C94EA16E0
:1000A0000C94EA160C94EA160C94EA160C94EA16D0
:1000B0000C94EA160C94EA160C94EA160C94EA16C0
:1000C0000C94EA160C94EA160C94EA160C94EA16B0
:1000D0000C94EA160C94EA160C94EA160C94EA16A0
:1000E0000C94EA16A863B163BB63C463CD63E86391
:1000F000F563FE63D663DF6344F747F736F73AF7F5
:1001000040F77EF74BF74FF755F759F75DF763F771
:1001100067F76BF77EF771F775F779F7E3F7E8F7AD
:10012000EDF7F7F701F87AF80BF813F81BF825F854
:100130002FF839F848F852F87AF85CF866F870F851
:10014000084AD73B3BCE016E84BCBFFDC12F3D6C3E
:1001500074319ABD56833DDA3D00C77F11BED9E4A4
:10016000BB4C3E916BAAAABE000000803F05A84C84
:10017000CDB2D44EB93836A9020C50B99186880850
:100180003CA6AAAA2ABE000000803F000D940A08DF
:100190000D940D044E414E494E495459494E46CD99
:1001A000CCCC3D0AD7233C17B7D13877CC2B32952E
:1001B00095E6241FB14F0A000020410000C842000C
:1001C000401C4620BCBE4CCA1B0E5AAEC59D744393
:1001D0004F4D4D554E49434154494F4E004452599D
:1001E00052554E004552524F525300494E464F0011
:1001F0004543484F0047322F4733206261642070E7
:100200006172616D65746572730A00536F73706516
:100210006E73696F6E652E2E2E00205A3A200020D4
:10022000593A200042656420583A20004D657368B1
:1002300020706F696E742063616E6E6F74206265EA
:10024000207265736F6C7665640A0044454C5441B6
:10025000434F4D422070726F6E746F2E0052697062
:1002600072656E6469205374616D706100507265CF
:100270006D6920746173746F2E2E00456E64206664
:10028000696C65206C6973740A00426567696E2049
:1002900066696C65206C6973740A0046696C652038
:1002A00064656C657465643A0044656C6574696F77
:1002B0006E206661696C65642C2046696C653A2025
:1002C000006F70656E206661696C65642C204669FC
:1002D0006C653A20005072696E742074696D653ADD
:1002E000200050726F7465637465642050696E0AF3
:1002F000006D0046696C616D656E74207573656490
:100300003A200053746174733A20002C204C6F6EB5
:1003100067657374206A6F623A2000546F74616C71
:100320002074696D653A200053746174733A20003B
:100330002C204661696C65643A20002C2046696E69
:1003400069736865643A20005072696E74733A206C
:100350000053746174733A200045256920257300A9
:1003600044454C5441434F4D422070726F6E746F40
:100370002E00F001EB01E401DD01CF016F666600A4
:1003800044454255473A0055434349534F2E2000B8
:100390004D3131332053006F6B0044454C54414381
:1003A0004F4D42204F66662E004D31343520533C70
:1003B000696E6465783E206F7574206F6620726187
:1003C0006E67652028302D31290A00205A002059F7
:1003D00000580020204D61783A2000205A00205912
:1003E00000580020204D696E3A20004F6E20004FCB
:1003F000666600536F667420656E6473746F707305
:100400003A20000001363726FF023C3D38FF0F2E10
:10041000303E1213FF0C0809FFFFFF1A1C18FFFFE4
:1004200008440AFF43FFFFFFFFFFFF20643A00205C
:10043000693A0020703A0043290A0061626C6564E1
:1004400020286D696E2074656D702000436F6C64A8
:10045000206578747275646573206172652000236D
:10046000646566696E65202044454641554C545F7D
:100470004B64200023646566696E65202044454610
:1004800041554C545F4B69200023646566696E6575
:10049000202044454641554C545F4B702000504944
:1004A00044204175746F74756E652066696E69735A
:1004B000686564212050757420746865206C6173D0
:1004C00074204B702C204B6920616E64204B64209B
:1004D000636F6E7374616E74732066726F6D2062E9
:1004E000656C6F7720696E746F20436F6E66696705
:1004F00075726174696F6E2E680A0050494420411C
:1005000075746F74756E65206661696C6564212011
:1005100074696D656F75740A0050494420417574A3
:100520006F74756E65206661696C65642120546521
:100530006D706572617475726520746F6F20686983
:1005400067680A00204B643A2000204B693A20007B
:10055000204B703A20000A20436C6173736963205A
:10056000504944200A002054753A2000204B753A27
:100570002000206D61783A2000206D696E3A2000DD
:1005800020643A200020626961733A200042656469
:10059000204C6576656C696E6720004661696C6504
:1005A0006420746F20656E61626C65204265642012
:1005B0004C6576656C696E670A004D6573682070DE
:1005C0006F696E742063616E6E6F74206265207255
:1005D00065736F6C7665640A004D34323120696E44
:1005E000636F727265637420706172616D657465AA
:1005F000722075736167650A00454550524F4D2062
:1006000064697361626C65640A003A20007A5F6D08
:10061000696E3A20202D3230207A5F6D61783A2061
:10062000203230005A204F666673657420004E6F8A
:100630002063617365206C696768740A00416374A4
:100640006976652045787472756465723A20005544
:100650006E6B6E6F776E20636F6D6D616E643A20A6
:1006600022002569730025696D20256973002569BD
:10067000682025696D202569730025696420256936
:10068000682025696D202569730025697920256911
:1006900064202569682025696D20256973004E6FE7
:1006A000204C696E65204E756D62657220776974A5
:1006B0006820636865636B73756D2C204C6173747F
:1006C000204C696E653A200055434349534F2E2014
:1006D0000041525245535441544F2E2000507269EC
:1006E0006E7465722073746F7070656420647565D4
:1006F00020746F206572726F72732E2046697820A5
:10070000746865206572726F7220616E6420757303
:1007100065204D39393920746F20726573746172A8
:10072000742E202854656D70657261747572652031
:1007300069732072657365742E2053657420697423
:100740002061667465722072657374617274696E7B
:1007500067290A004E6F20436865636B73756D20CF
:1007600077697468206C696E65206E756D6265725C
:100770002C204C617374204C696E653A20006368CC
:1007800065636B73756D206D69736D617463682C3F
:10079000204C617374204C696E653A20004C696E80
:1007A00065204E756D626572206973206E6F7420CE
:1007B0004C617374204C696E65204E756D62657274
:1007C0002B312C204C617374204C696E653A2000EB
:1007D0004D313130004D3331004D383420582059DF
:1007E000205A20450053442072656164206572726E
:1007F0006F720A00446F6E65207072696E74696E64
:10080000672066696C650A0020496E76616C6964D0
:1008100020657874727564657220000000B4C200AF
:1008200000B4C2000000000000B4420000B4423333
:10083000B37F4300002200250028002B002E00314A
:1008400000340002010000050108010B0100002036
:10085000002300260029002C002F00320000010098
:10086000000301060109010505050507050808083B
:1008700008020202020A0A08080404040401010131
:100880000101010101030303030303030304070739
:10089000070C0C0C0C0C0C0C0C02020202060606D7
:1008A00006060606060B0B0B0B0B0B0B0B010210BF
:1008B000202008081020401020408002010201087A
:1008C000040201010204081020408080402010082A
:1008D0000402018004020180402010080402010883
:1008E00004020101020408102040800102040810E3
:1008F00020408000000A0B02090C0D0E08070304BB
:1009000001000000000000000000000000000000E6
:1009100000000000000000000000000000000012C5
:1009200011100000000000000000000000000000A6
:1009300000000000000000000055434349534F2EC3
:100940002000202D20496E76616C696420657874E2
:100950007275646572206E756D62657220210A0081
:100960002D2D2D2D2D2D007C4D61726C696E7C001E
:100970002D2D2D2D2D2D00687474703A2F2F6D6143
:10098000726C696E66772E6F726700687474703A65
:100990002F2F6D61726C696E66772E6F7267002003
:1009A000312E312E3400000000000102040400004A
:1009B000001C1C0C040404020100000000000408D8
:1009C0001000000000002020506C616E6E657242C5
:1009D000756666657242797465733A2000204672C6
:1009E0006565204D656D6F72793A2000436F6D70BB
:1009F000696C65643A2041756720313720323031A7
:100A0000370A00207C20417574686F723A20286E86
:100A10006F6E652C2064656661756C7420636F6E03
:100A2000666967290A00323031372D30372D30346E
:100A30002031323A303000204C617374205570649C
:100A4000617465643A2000312E312E340A004D6104
:100A5000726C696E0020536F667477617265205204
:100A6000657365740A00205761746368646F67205A
:100A700052657365740A002042726F776E206F753D
:100A8000742052657365740A002045787465726E2F
:100A9000616C2052657365740A00506F77657255FA
:100AA000700A0073746172740A006572726F72204A
:100AB00077726974696E6720746F2066696C650A65
:100AC00000456E6473746F702025632025632025B4
:100AD0006320256300205A3A0020593A0020583AF2
:100AE00000656E6473746F7073206869743A2000D7
:100AF000446F6E6520736176696E672066696C6508
:100B00002E0A004D323900486F6D6520257325731C
:100B10002573207072696D6100207072696D610AC1
:100B2000005A0059005800486F6D6520005344205A
:100B300063617264206F6B0A006F70656E526F6F35
:100B400074206661696C65640A00766F6C756D650A
:100B50002E696E6974206661696C65640A0053448D
:100B600020696E6974206661696C0A006175746F32
:100B700025692E67004D3234004D32332025730035
:100B800057726974696E6720746F2066696C653A84
:100B900020006F70656E206661696C65642C20466C
:100BA000696C653A20006F70656E206661696C65DE
:100BB000642C2046696C653A200046696C65207398
:100BC000656C65637465640A002053697A653A2030
:100BD0000046696C65206F70656E65643A20006F31
:100BE00070656E206661696C65642C2046696C6571
:100BF0003A20002066696C653A20004E6F7720002D
:100C00002220706F73002220706172656E743A2228
:100C100000535542524F5554494E452043414C4C88
:100C2000207461726765743A220055434349534FFB
:100C30002E2000747279696E6720746F2063616C76
:100C40006C207375622D67636F64652066696C65DF
:100C500073207769746820746F6F206D616E7920DE
:100C60006C6576656C732E204D4158206C657665F9
:100C70006C2069733A004572726F723A0052696172
:100C800076766961726520707265676F00535441B2
:100C90004D50414E5445204645524D41544100501F
:100CA00072696E7465722068616C7465642E206B65
:100CB000696C6C28292063616C6C6564210A00658D
:100CC0006E7175657565696E672022000000484386
:100CD0000000484300004843000000005761726E66
:100CE000696E673A20486F6D696E672042756D7056
:100CF0002044697669736F72203C20310A000A0A29
:100D00000A0000A0400000A0400000A04000003405
:100D1000430000344333B37F430101017C3C3E5E1A
:100D20002B3D3F2F5B5D3B2C2A225C0025753A252D
:100D300030327500253032753A25303275002D2D50
:100D40002D005344005A00590058005374616D70CF
:100D50006120736F737065736100005374616D700F
:100D60006120616E6E756C6C617461005374616DAD
:100D70007061206461205344004172726573746134
:100D8000207374616D70610052697072656E646980
:100D9000207374616D7061005344206E6F6E20701B
:100DA000726573656E746500506175736100436FA1
:100DB0006E74726F6C6C6F0043616C696272617A01
:100DC0002E2044656C746100507265706172610020
:100DD0005265676F6C6100477561726461004D36E2
:100DE00030302042300043616D6269612066696C79
:100DF000616D656E746F00466C7573736F00466C41
:100E00007573736F0056656C6F636974C3A0207649
:100E1000656E746F6C610056656C6F636974C3A016
:100E20002076656E746F6C61005567656C6C6F0041
:100E30005567656C6C6F0056656C6F636974C3A011
:100E40000056656C6F636974C3A0004D656E7520B4
:100E50007072696E636970616C650020205567650A
:100E60006C6C6F3A200064656C2066696C616D651E
:100E70006E746F006C27657374727573696F6E653D
:100E800000417474656E64657265005354414D5041
:100E90004120494E2050415553410064656C6C61BE
:100EA000207374616D7061006C612072697072658D
:100EB000736100417474656E6465726500535441DA
:100EC0004D504120494E205041555341005344203C
:100ED000436172642072696D6F73736100534420C3
:100EE0004361726420696E7365726974610044695C
:100EF000616D2E2066696C6F004469616D2E2066FD
:100F0000696C6F004F6666004F6E20004520696E69
:100F1000206D6D3300436F6E74726F6C6C6F0043A5
:100F2000616E6E6F7420656E746572207375626495
:100F300069723A2000052E2E004D656E7520707284
:100F4000696E636970616C650020205567656C6C23
:100F50006F3A2000496E64696574726F0054656D64
:100F600070206D696E696D6120C3A8203136302E06
:100F70000052697363616C642E2046616C6C697405
:100F80006F004573747275646920616E636F72617E
:100F90000052697072656E6469207374616D70616E
:100FA000004F505A494F4E493A0020205567656C12
:100FB0006C6F3A200064692066696C616D656E74BF
:100FC0006F0064656C2063616D62696F00417474C9
:100FD000656E6465726520617676696F0053544171
:100FE0004D504120494E205041555341002020553D
:100FF00067656C6C6F3A200064656C2066696C6193
:101000006D656E746F006C27657370756C73696FB6
:101010006E6500417474656E646572650053544179
:101020004D504120494E20504155534100202055FC
:1010300067656C6C6F3A2000417474656E6465720C
:10104000652E2E2E0052697363616C642E207567C5
:10105000656C6C6F005354414D504120494E2050F7
:10106000415553410020205567656C6C6F3A200054
:1010700072697363616C64207567656C6C6F2E00B8
:101080005072656D6920706572005354414D504136
:1010900020494E2050415553410020205567656C32
:1010A0006C6F3A20007072656D6920706572206304
:1010B0006F6E740066696C616D656E746F2065009B
:1010C000496E7365726973636920696C005354419A
:1010D0004D504120494E205041555341002020554C
:1010E00067656C6C6F3A200064656C2066696C61A2
:1010F0006D656E746F00696C206361726963616D08
:10110000656E746F00417474656E6465726500533A
:1011100054414D504120494E2050415553410020EB
:101120005A3A200020593A200042656420583A205B
:101130000042696C696E656172204C6576656C6908
:101140006E6720477269643A0A00000000000000E0
:10115000000033B37F4320706F736974696F6E2032
:101160006F7574206F662072616E67652E0A003F8E
:1011700050726F6265200052756E6E696E672069ED
:101180006E204452592D52554E206D6F64650A00F1
:10119000473239204175746F20426564204C657672
:1011A000656C696E670A0028422961636B002846F6
:1011B00029726F6E74002852296967687400284C80
:1011C00029656674003F2856296572626F73652031
:1011D0006C6576656C20697320696D706C617573E0
:1011E00069626C652028302D34292E0A0042616422
:1011F000205A2076616C75650A004E6F2062696C1A
:10120000696E65617220677269640A004861726480
:10121000636F6465642044656661756C7420536512
:101220007474696E6773204C6F616465640A00288A
:1012300023000028230000282300001027000000BE
:1012400000FA430000FA430000FA430000C84200DD
:1012500000C8420000C8420000C8420000224320EB
:10126000204D383531205A005A2D50726F6265205A
:101270004F666673657420286D6D293A0A00204414
:101280000020490020204D33303120500050494487
:101290002073657474696E67733A0A0020460020F3
:1012A000420020480020204D3134352053004D614C
:1012B00074657269616C2068656174757020706115
:1012C00072616D65746572733A0A00205A00205984
:1012D00000205800204200205300204800205200E7
:1012E00020204D363635204C0044656C74612073E7
:1012F000657474696E67733A204C3C646961676F0A
:101300006E616C5F726F643E20523C7261646975FD
:10131000733E20483C6865696768743E20533C739F
:1013200065676D656E74735F7065725F733E2042B2
:101330003C63616C6962726174696F6E2072616492
:101340006975733E2058595A3C746F7765722061F5
:101350006E676C6520636F7272656374696F6E731C
:101360003E0A00205A0020590020204D36363620F3
:101370005800456E6473746F702061646A7573748D
:101380006D656E743A0A0020204D343230205300CF
:101390004175746F20426564204C6576656C696E9A
:1013A000673A0A00204500205A00205900205800C2
:1013B00020420020540020204D323035205300417F
:1013C0006476616E6365643A20533C6D696E5F6656
:1013D000656564726174653E20543C6D696E5F742E
:1013E000726176656C5F66656564726174653E20E6
:1013F000423C6D696E5F7365676D656E745F74699D
:101400006D655F6D733E20583C6D61785F78795FE4
:101410006A65726B3E205A3C6D61785F7A5F6A65DF
:10142000726B3E20453C6D61785F655F6A65726BEB
:101430003E0A0020540020520020204D323034203B
:101440005000416363656C65726174696F6E20283A
:10145000756E6974732F7332293A20503C7072692B
:101460006E745F616363656C3E20523C726574729A
:101470006163745F616363656C3E20543C747261A8
:1014800076656C5F616363656C3E0A0020450020F1
:101490005A0020590020204D3230312058004D6133
:1014A00078696D756D20416363656C6572617469FF
:1014B0006F6E2028756E6974732F7332293A0A0093
:1014C000204500205A0020590020204D3230332082
:1014D00058004D6178696D756D206665656472614F
:1014E0007465732028756E6974732F73293A0A0026
:1014F000204500205A0020590020204D3932205824
:101500000053746570732070657220756E69743A4B
:101510000A0020204D3230302044300A0020204D77
:101520003230302044002044697361626C65640A83
:101530000046696C616D656E742073657474696EC4
:1015400067733A0020204D3134392043203B205529
:101550006E69747320696E2043656C736975730AD4
:10156000002020473231202020203B20556E697416
:101570007320696E206D6D0A00496E206D6F76696B
:101580006D656E746F2E2E2E004573747275736FB9
:101590007265004175746F20486F6D650047323881
:1015A000004D756F7669205A005859206C69626544
:1015B0007269004D756F76692059004D756F7669B7
:1015C00020580050726570617261005269707269D2
:1015D0007374696E6120696D702E0046696C616D6F
:1015E000656E746F004D6F76696D656E746F005433
:1015F000656D7065726174757261004D656E752000
:101600007072696E636970616C65005072657269B1
:101610007363616C64612041425320636F6E6600A6
:1016200050726572697363616C646120504C412033
:10163000636F6E66005049442D44005049442D4468
:10164000005049442D49005049442D490050494417
:101650002D50005049442D50000220466163740013
:101660000220466163740002204D61780002204D23
:1016700061780002204D61780002204D696E000201
:10168000204D696E0002204D696E004F6666004F66
:101690006E20004175746F74656D700056656C6FD7
:1016A000636974C3A02076656E746F6C61005665C3
:1016B0006C6F636974C3A02076656E746F6C610093
:1016C0005567656C6C6F005567656C6C6F00436F98
:1016D0006E74726F6C6C6F005567656C6C6F005543
:1016E00067656C6C6F0056656C6F636974C3A0208E
:1016F00076656E746F6C610056656C6F636974C358
:10170000A02076656E746F6C610054656D706572B3
:10171000617475726100526573656E643A20006F82
:101720006B0020746F6F206C6F6E67206578747229
:101730007573696F6E2070726576656E7465640A84
:101740000020636F6C6420657874727573696F6EC6
:101750002070726576656E7465640A0062757379CF
:101760003A2070617573656420666F7220696E70CF
:1017700075740A00627573793A20706175736564D7
:1017800020666F7220757365720A00627573793A0C
:101790002070726F63657373696E670A0055434307
:1017A00049534F2E20004B494C4C206361757365A3
:1017B00064206279204B494C4C20627574746F6EC2
:1017C0002F70696E0A0055434349534F2E20004B3A
:1017D000494C4C2063617573656420627920746F95
:1017E0006F206D75636820696E616374697665202A
:1017F00074696D65202D2063757272656E74206347
:101800006F6D6D616E643A20005654726176206D82
:10181000696E005654726176206D696E005654727E
:101820006176206D696E00566D696E00566D696E49
:1018300000566D696E00566D6178204500566D61E9
:1018400078204500566D6178204500566D617820FE
:101850005A00566D6178205A00566D6178205A0002
:10186000566D6178205900566D6178205900566D8B
:101870006178205900566D6178205800566D617866
:10188000205800566D61782058004D6F76696D655F
:101890006E746F00416D6178204500416D61782064
:1018A0004500416D6178205A00416D6178205A00F1
:1018B000416D6178205900416D6178205900416D7A
:1018C0006178205800416D6178205800412D537097
:1018D0006F7374616D656E746F00412D53706F731B
:1018E00074616D656E746F00412D72657472616311
:1018F0007400412D726574726163740041636365A5
:101900006C00416363656C004D6F76696D656E7444
:101910006F0056652D6A65726B0056652D6A65729B
:101920006B0056652D6A65726B00567A2D6A65727A
:101930006B00567A2D6A65726B00567A2D6A657255
:101940006B0056792D6A65726B0056792D6A657247
:101950006B0056792D6A65726B0056782D6A657238
:101960006B0056782D6A65726B0056782D6A657229
:101970006B004D6F76696D656E746F0045706173B5
:1019800073692F6D6D004570617373692F6D6D0004
:101990005A70617373692F6D6D005A70617373694A
:1019A0002F6D6D005970617373692F6D6D005970E3
:1019B000617373692F6D6D005870617373692F6D5A
:1019C0006D005870617373692F6D6D004D6F76698E
:1019D0006D656E746F0050617373692F6D6D004A91
:1019E00065726B00416363656C6572617A696F6EE5
:1019F000650056656C6F636974C3A0005A204F661A
:101A000066736574005A204F666673657400436F91
:101A10006E74726F6C6C6F00205A3A0020593A0055
:101A200020436F756E7420583A0020453A00205AC2
:101A30003A0020593A00583A004361703A454D4502
:101A40005247454E43595F5041525345523A300A2E
:101A5000004361703A434153455F4C494748545FE6
:101A60004252494748544E4553533A300A00436165
:101A7000703A544F47474C455F4C49474854533A96
:101A8000300A004361703A534F4654574152455F04
:101A9000504F5745523A300A004361703A4C455610
:101AA000454C494E475F444154413A310A00436135
:101AB000703A5A5F50524F42453A310A00436170C2
:101AC0003A4155544F4C4556454C3A310A00436112
:101AD000703A5052494E545F4A4F423A310A0043DD
:101AE00061703A50524F47524553533A300A0043BF
:101AF00061703A4155544F5245504F52545F5445CE
:101B00004D503A310A004361703A454550524F4DAD
:101B10003A300A004649524D574152455F4E414DB9
:101B2000453A4D61726C696E20312E312E34202879
:101B30004769746875622920534F555243455F4386
:101B40004F44455F55524C3A68747470733A2F2F66
:101B50006769746875622E636F6D2F4D61726C6971
:101B60006E4669726D776172652F4D61726C696E38
:101B70002050524F544F434F4C5F56455253494F9C
:101B80004E3A312E30204D414348494E455F54591D
:101B900050453A44454C5441434F4D4220455854DA
:101BA00052554445525F434F554E543A3120555596
:101BB00049443A63656465326132662D343161327D
:101BC0002D343734382D396231322D633535633653
:101BD000326633363766660A002F2F20005365744D
:101BE00074696E672054726176656C204163636529
:101BF0006C65726174696F6E3A2000536574746924
:101C00006E67205265747261637420416363656C12
:101C100065726174696F6E3A200053657474696E01
:101C200067205072696E7420416363656C657261F0
:101C300074696F6E3A200053657474696E67205042
:101C400072696E7420616E642054726176656C20D6
:101C5000416363656C65726174696F6E3A20004D13
:101C600036303020486F74656E6420746F6F206367
:101C70006F6C6420746F206368616E6765206669AD
:101C80006C616D656E740A007A5F6D61783A200050
:101C90007A5F6D696E3A2000795F6D61783A200055
:101CA000785F6D61783A20005265706F7274696E6A
:101CB0006720656E6473746F7020737461747573DC
:101CC0000A0020746F6F206C6F6E672065787472E5
:101CD0007573696F6E2070726576656E7465640ADF
:101CE0000020636F6C6420657874727573696F6E21
:101CF0002070726576656E7465640A0024F4D430D1
:101D000050C38E20C2A24017828B7011127A910D9F
:101D1000816CD90AA861E108C7586607615143067A
:101D20001E4B5D05C145A7041A411104093D9803E6
:101D3000713931034036DB0265339102D4305402ED
:101D4000802E1D02632CEE01752AC501B028A0016A
:101D5000102781018F2564012B244B01E0223401DF
:101D6000AC211F018D200D01801FFC00841EED00A1
:101D7000971DDF00B81CD200E61BC600201BBC006C
:101D8000641AB200B219A8000A19A0006A189900D2
:101D9000D117910040178B00B516840031167E00D4
:101DA000B31579003A157300C7146F0058146A0010
:101DB000EE1366008813630025135E00C7125B00F4
:101DC0006C12570015125400C111510070114F00D0
:101DD00021114B00D61049008D10470046104400D9
:101DE00002104200C00F4000800F3E00420F3C0036
:101DF000060F3B00CB0E3800930E37005C0E35000B
:101E0000270E3400F30D3200C10D3100900D30006B
:101E1000600D2E00320D2D00050D2C00D90C2B006D
:101E2000AE0C2900850C29005C0C2700350C27001E
:101E30000E0C2600E80B2400C40B2400A00B23008A
:101E40007D0B23005A0B2100390B2100180B2000B9
:101E5000F80A1F00D90A1E00BB0A1E009D0A1D00B9
:101E6000800A1D00630A1C00470A1B002C0A1B0085
:101E7000110A1A00F7091A00DD091900C40919002E
:101E8000AB091900920917007B09180063091700B4
:101E90004C09160036091600200916000A0915001B
:101EA000F5081500E0081400CC081400B808140068
:101EB000A4081400900813007D0812006B0813009A
:101EC00058081200460812003408110023081100B7
:101ED0001208110001081100F0071000E0071000BF
:101EE000D0071000C0071000B0070F00A1071000B6
:101EF00091070E0083070F0074070F0065070E009F
:101F000057070E0049070E003B070D002E070E0075
:101F100020070D0013070D0006070D00F9060C0041
:101F2000ED060D00E0060C00D4060C00C8060C00FF
:101F3000BC060C00B0060C00A4060B0099060C00B1
:101F40008D060B0082060B0077060B006C060B005B
:101F500061060A0057060B004C060A0042060A00FA
:101F600038060A002E060A0024060A001A060A008D
:101F70001006090007060A00FD050900F40509001E
:101F8000EB050900E2050900D9050900D0050900A3
:101F9000C7050900BE050900B5050800AD05080024
:101FA000A50509009C050800940508008C0508009B
:101FB000840508007C050800740508006C0507000E
:101FC000650508005D050700560508004E05070079
:101FD00047050700400508003805070031050700E0
:101FE0002A050700230507001C0506001605070043
:101FF0000F0507000805060002050700FB040600A0
:10200000F5040700EE040600E8040600E2040700F9
:10201000DB040600D5040600CF040600C904060050
:10202000C3040600BD040600B7040600B1040500A1
:10203000AC040600A6040600A00405009B040600EC
:1020400095040500900406008A0405008504050037
:10205000800406007A04050075040500700405007C
:102060006B04050066040500610405005C040500BE
:1020700057040500520405004D04050048040500FE
:10208000430405003E0404003A040500350405003D
:10209000300404002C040500270404002304050078
:1020A0001E0404001A0404001604050011040400B0
:1020B0000D040400090405000404040000040400E5
:1020C000FC030400F8030400F4030400F00304001C
:1020D000EC030400E8030400E4030400E00304004C
:1020E000DC030400D8030400D4030400D00304007C
:1020F000CC030400C8030300C503030024F404D97F
:10210000201BC40C5C0E9804C4095F0265077101B2
:10211000F405F900FB04B30048048700C10369001B
:102120005803550003034500BE023A008402310003
:1021300053022A002902250004022000E4011C00A9
:10214000C8011900AF0117009801140084011300A1
:10215000710110006101100051010E0043010D00DA
:1021600036010B002B010B0020010B0015010900AB
:102170000C01090003010800FB000800F30008003F
:10218000EB000700E4000600DE000600D8000600B1
:10219000D2000600CC000500C7000500C200050003
:1021A000BD000400B9000400B5000400B100040043
:1021B000AD000400A9000400A5000300A200030074
:1021C0009F0004009B00030098000300950002009C
:1021D00093000300900003008D0002008B000300B9
:1021E00088000200860002008400030081000200D3
:1021F0007F0002007D0002007B00020079000200E7
:1022000077000100760002007400020072000100F5
:10221000710002006F0002006D0001006C000200FE
:102220006A00010069000200670001006600010009
:10223000650001006400020062000100610001000D
:10224000600001005F0002005D0001005C00010011
:102250005B0001005A000100590001005800010014
:102260005700010056000100550001005400010014
:102270005300000053000100520001005100010012
:10228000500001004F0001004E0000004E00010010
:102290004D0001004C0001004B0000004B0001000C
:1022A0004A00010049000100480000004800010008
:1022B0004700010046000000460001004500000004
:1022C00045000100440001004300000043000100FC
:1022D00042000000420001004100000041000100F6
:1022E000400001003F0000003F0001003E000000F0
:1022F0003E0001003D0000003D0001003C000000E8
:102300003C0000003C0001003B0000003B000100DD
:102310003A0000003A0001003900000039000100D5
:1023200038000000380000003800010037000000CD
:1023300037000100360000003600000036000100C2
:1023400035000000350000003500010034000000B9
:1023500034000000340001003300000033000000AE
:1023600033000100320000003200000032000100A2
:102370003100000031000000310001003000000099
:1023800030000000300001002F0000002F0000008E
:102390002F0000002F0001002E0000002E00000082
:1023A0002E0001002D0000002D0000002D00000077
:1023B0002D0001002C0000002C0000002C0000006B
:1023C0002C0001002B0000002B0000002B0000005F
:1023D0002B0001002A0000002A0000002A00000053
:1023E0002A00010029000000290000002900000047
:1023F000290000002900010028000000280000003A
:10240000280000002800000028000100270000002C
:10241000270000002700000027000000270001001F
:102420002600000026000000260000002600000014
:102430002600010025000000250000002500000006
:1024400025000000250000002500010024000000F8
:1024500024000000240000002400000024000100EB
:1024600023000000230000002300000023000000E0
:1024700023000000230000002300010022000000D0
:1024800022000000220000002200000022000000C4
:1024900022000100210000002100000021000000B6
:1024A00021000000210000002100000021000100A7
:1024B000200000002000000020000000200000009C
:1024C000200000002000000020000000200001008B
:1024D0001F0000001F0000001F0000001F00000080
:1024E0001F0000001F0000001F0001001E00000070
:1024F0001E0000001E0000001E0000004D383420A9
:10250000582059205A2045004E657373756E204D32
:102510006F76696D656E746F005344207072696EDA
:1025200074696E67206279746520004E6F74205361
:1025300044207072696E74696E670A005374616E2C
:102540006461726420446576696174696F6E3A20D3
:10255000002052616E67653A2000204D61783A2074
:1025600000204D696E3A20004D65616E3A200046AC
:10257000696E697368656421002072616E67653AEF
:102580002000206D61783A2000206D696E3A2000AD
:10259000207369676D613A2000206D65616E3A2095
:1025A000003A207A3A2000206F662000205A00204E
:1025B0005900205800476F696E6720746F3A002CED
:1025C000200050756C6C696E6720706F696E7420A6
:1025D000746F77617264732063656E7465723A001C
:1025E000436C6F636B776973650A00436F756E7434
:1025F00065722D0020446972656374696F6E3A20BC
:1026000000202020616E676C653A2000537461726F
:1026100074696E67207261646975733A2000506F47
:10262000736974696F6E696E672074686520707273
:102630006F62652E2E2E0A003F4E756D6265722008
:102640006F66206C65677320696E206D6F76656DAF
:10265000656E74206E6F7420706C61757369626C46
:10266000652028302D3135292E0A003F2028582C8E
:102670005929206C6F636174696F6E206F75747374
:10268000696465206F662070726F626561626C6557
:10269000207261646975732E0A003F53616D706C1E
:1026A000652073697A65206E6F7420706C61757334
:1026B00069626C652028342D3530292E0A004D348E
:1026C00038205A2D50726F626520526570656174B2
:1026D0006162696C69747920546573740A003F28DB
:1026E00056296572626F7365206C6576656C20692A
:1026F0007320696D706C61757369626C6520283038
:102700002D34292E0A00202F0020403A00526973F0
:10271000632E20636F6D706C657461746F00452566
:10272000692025730044454C5441434F4D4220706D
:10273000726F6E746F2E0050726572697363616C94
:10274000646120504C410052616666726564646148
:102750000050726572697363616C64612041425319
:102760000043616D6269612066696C616D656E74BC
:102770006F004469736162696C697461204D6F74A4
:102780006F7269004D3834004C6976656C6C61205D
:102790007069616E6F004732380A473239004175FF
:1027A000746F20486F6D6500473238004D756F7645
:1027B000692041737365004D656E75207072696E96
:1027C000636970616C6500486F6D65206173736942
:1027D0002058595A004732380043616C696272616F
:1027E0002043656E7465720043616C69627261209A
:1027F0005A0043616C6962726120590043616C69DF
:102800006272612058004175746F20486F6D6500D9
:10281000496D702E20616C74657A7A612044656C14
:10282000746100473333205031004175746F206369
:10283000616C696272617A696F6E6500473333005B
:102840004D656E75207072696E636970616C6500AC
:102850004D756F76692058004D756F766920590067
:102860004D756F7669205A004573747275736F7277
:1028700065004D756F766920646920302E316D6D6D
:10288000004D756F7669206469202020316D6D00E0
:102890004D756F7669206469202031306D6D004D73
:1028A000756F766920417373650045737472757333
:1028B0006F7265004D756F7669205A004D756F76A1
:1028C000692059004D756F76692058001000AA03E1
:1028D000F0013A019002220130031001D0030201FD
:1028E0007004F7001005ED00B005E5005006DD00AE
:1028F000F006D7009007D1003008CC00D008C70000
:102900007009C300100ABE00B00ABB00500BB7002C
:10291000F00BB300900CB000D00DAA00100FA50072
:102920005010A00090119B00D0129600B01490009F
:1029300090168B0070188500501A8000301C7B00A8
:10294000B01E750030216F00B0236900302664008E
:1029500010285F00902A5A00702C5500F02E4F006E
:1029600070314800B0324500F03341007036390014
:10297000103737005038330090392D00D03A2700F7
:10298000B03C1C00503D1700F03D1100903E090086
:10299000D03FE5FF6265640A002C2073797374658B
:1029A0006D2073746F707065642120486561746573
:1029B000725F49443A200052697363616C642E204F
:1029C00046616C6C69746F0048656174696E67205C
:1029D0006661696C6564004572723A2054454D50D9
:1029E000204D494E494D41004D494E54454D5020D2
:1029F000747269676765726564004572723A205443
:102A0000454D50204D415353494D41004D4158547F
:102A1000454D502074726967676572656400203F98
:102A2000ECED3F5C7C3F2263617F3F3F52B0DF3F74
:102A3000323327E4F1A52C31DF7E3F3F3F3F3F3F5C
:102A40003F3FE13F3F3F3F3F3F3F3F3F3F3F3F3FF4
:102A50003F3F3F3FEF783F3F3F3FF53F3FE23F3F44
:102A60003F3FE13F3F3F3F3F3F3F3F3F3F3F3FEE25
:102A70003F3F3F3FEFFD3F3F3F3FF53F3F3F001CA4
:102A80001F11111F00000006191803130C00040E7B
:102A90001F041C0000000010101010101000001483
:102AA0001414141414000015151515151500000E36
:102AB0001315110E00001C10181705060500040A56
:102AC0000A0A0A11110E0C12120C00000000001F5D
:102AD0001511151F000043616E6E6F74206F7065D5
:102AE0006E2073756264697220006563686F3A00D6
:102AF00054454D502046554F524920434F4E545255
:102B00004F4C4C4F00546865726D616C2052756E6D
:102B10006177617900202000737464206465763ADF
:102B200000536176652077697468204D3530302018
:102B3000616E642F6F7220636F707920746F204311
:102B40006F6E66696775726174696F6E2E680020BA
:102B500020547A3A2B302E303000547900547800CB
:102B60002E546F77657220616E676C65203A202065
:102B700000202020205261646975733A00457A0074
:102B800045790020204578002E4865696768743AC9
:102B900000737464206465763A00497465726174E8
:102BA000696F6E203A20253032690043616C69629A
:102BB000726174696F6E204F4B00726F6C6C696E3E
:102BC00067206261636B2E00737464206465763ADB
:102BD0000043616C6962726174696F6E204F4B00D3
:102BE000456E64204452592D52554E007879007A32
:102BF00078002020797A00207A0020790020202097
:102C0000780063002E20202020002020547A3A2BC8
:102C1000302E3030005479005478002E546F776590
:102C20007220616E676C65203A20200020202020F1
:102C30005261646975733A00457A00457900202035
:102C40004578002E4865696768743A004368656393
:102C50006B696E672E2E2E20414300202844525966
:102C60002D52554E2900436865636B696E672E2EA1
:102C70002E20414300473333204175746F20436158
:102C80006C6962726174650A003F284D36363520E2
:102C900042296564207261646975732069732069D3
:102CA0006D706C61757369626C652E0A003F284611
:102CB000296F72636520697465726174696F6E2033
:102CC000697320696D706C61757369626C65202829
:102CD000302D3330292E0A003F284329616C696268
:102CE000726174696F6E20707265636973696F6E6B
:102CF00020697320696D706C61757369626C652001
:102D0000283E30292E0A003F2856296572626F73CB
:102D100065206C6576656C20697320696D706C61E7
:102D2000757369626C652028302D32292E0A003FA8
:102D30002850296F696E747320697320696D706CF7
:102D400061757369626C6520283120746F203729A2
:102D50002E0A0000002100240027002A002D003048
:102D600000330001010000040107010A0100C60050
:102D7000C80011241FBECFEFD1E2DEBFCDBF00E0FF
:102D80000CBF13E0A0E0B2E0E4EDFBE202E00BBF19
:102D900002C007900D92A63CB107D9F723E1A6EC3B
:102DA000B3E001C01D92AA3EB207E1F716E1C8EBFD
:102DB000D6E100E006C021970109802FFE010F94A3
:102DC0005915C73BD10780E00807A9F70E9487FF84
:102DD0000D94D9150C9400002F923F924F925F9260
:102DE0006F927F928F929F92AF92BF92CF92DF921B
:102DF000EF92FF920F931F93CF93DF93CDB7DEB780
:102E0000C359D1090FB6F894DEBF0FBECDBF0091F4
:102E1000130620E6029F800111240D561B4F80915E
:102E20000C0980FF1AC0EAEEFAE284917F013FEFBD
:102E3000E31AF30A811102C0780104C00E944D39DF
:102E4000F701F3CFD7018D917D01882319F00E94FE
:102E50004D39F8CF8AE00E944D3981E090E090939F
:102E6000450A8093440A1092F1031092F0038FE315
:102E70008093FE031092FD031092FC031092E00376
:102E80001092E1031092E2031092E303F8018081B3
:102E90000F5F1F4F8032D1F38E34B1F4818190EDFA
:102EA000980F9A3020F08D3211F08B3269F43296FF
:102EB000DF0131962C9120532A30D0F3CD01FC0153
:102EC000019620812032D9F3F0934D0AE0934C0A09
:102ED0007F01BFEFEB1AFB0A10816AE270E0C701C5
:102EE0000F94A115009731F0FC0131978081803259
:102EF000E1F311821D3429F0143519F0173409F06B
:102F0000CBC0F70180812FEFE21AF20A8032C9F3B9
:102F100080538A3008F0C0C01093FE032091FC0358
:102F20003091FD034AE03196429FC001439F900DCE
:102F30001124DF0111972C91022E000C330B20532A
:102F40003109280F391F808180538A3060F3309314
:102F5000FD032093FC03DF0131968C918032D9F37D
:102F60001D34D1F42E31310591F03CF42731310577
:102F700071F02C31310581F40AC02537310564F038
:102F80002737310524F0203A43E0340729F4B09381
:102F9000F103A093F00380C01092F1031092F003AC
:102FA00000914C0A61E070E0FD0131968C9188231C
:102FB00009F472C08132A1F41D3491F4203231053C
:102FC00079F4F093F103E093F00363E270E0CF0152
:102FD0000F94A115009709F45FC0DC011C925CC03E
:102FE0009FEBD92ED80E49E1C42ECD14C0F1AF010C
:102FF000FA0190814F5F5F4F9032D1F340ED490F5E
:103000004A3040F043ED490F423020F09B3211F03E
:103010000C94E431AF01AD2CB12C7501A3E0F59413
:10302000E794AA95E1F7C70180529C4F7C018D2D52
:103030008770DB0102C0AA0FBB1F8A95E2F7CD01A2
:10304000D7019C91892B8C934115510511F0401BA0
:1030500001C040E0D501AA53BC4F4C930AC08091F7
:10306000F0039091F103892B21F4B093F103A09325
:10307000F003808181548A3110F4DF0195CFDF01A4
:1030800031969C9190539A30D0F3CD01FC0101967A
:1030900040814032D9F3F1CF8091FE038D3411F499
:1030A0000C946221843511F40C948B31873411F027
:1030B0000C94C6318091FC039091FD038C319105F5
:1030C00009F4DEC69CF4843091053CF4823091050D
:1030D000F4F597FF30C00C94DD318430910509F48C
:1030E000FAC54B9709F43EC60C94DD318A3291053E
:1030F00011F40C94AC2074F48E31910509F4E8C6F7
:103100000CF4E2C6819711F00C94DD310E9464E367
:103110000C94DD318B35910509F496C78C359105FA
:1031200009F497C78A35910511F00C94DD3110929E
:10313000FB030C94DD3180917402882311F40C940C
:10314000DD310E94636D0E94D1960C94DD31209197
:103150007402222311F40C94DD3111E0029709F07E
:1031600010E00E94636D82E50E942C38882309F4E8
:103170005CC10E94CA376B017C014090D50650901B
:10318000D6066090D7067090D8062091D906309167
:10319000DA064091DB065091DC0623962CAF3DAF5A
:1031A0004EAF5FAF23978091C4069091C506A09162
:1031B000C606B091C70627968CAF9DAFAEAFBFAF26
:1031C00027972091C8063091C9064091CA065091B0
:1031D000CB0663962CAF3DAF4EAF5FAF639720E059
:1031E00030E0A901C701B6010F94000E882309F44D
:1031F00058C5A301920127966CAD7DAD8EAD9FADF4
:1032000027970F94000E811111C023962CAD3DAD70
:103210004EAD5FAD239763966CAD7DAD8EAD9FAD2A
:1032200063970F94000E882309F43BC520E030E03B
:10323000A901C701B6010F94000E881F8827881FB7
:1032400018130BC080E090E0A0E8BFE36B968CAF52
:103250009DAFAEAFBFAF6B970AC020E030E040E853
:103260005FEB6B962CAF3DAF4EAF5FAF6B97A3019B
:10327000920127966CAD7DAD8EAD9FAD27970F94D3
:1032800069122F966CAF7DAF8EAF9FAF2F972396AD
:103290002CAD3DAD4EAD5FAD239763966CAD7DAD6E
:1032A0008EAD9FAD63970F94691267966CAF7DAF3B
:1032B0008EAF9FAF67972F962CAD3DAD4EAD5FADF6
:1032C0002F97CA01B9010F94650E4B015C016796F7
:1032D0002CAD3DAD4EAD5FAD6797CA01B9010F94FE
:1032E000650E9B01AC01C501B4010F946A120F94E5
:1032F000D5142B966CAF7DAF8EAF9FAF2B9720E090
:1033000030E040E05FE30F94650E4B015C01A701E4
:103310009601C701B6010F94650E6B017C01A501F2
:103320009401C501B4010F94650E9B01AC01C70166
:10333000B6010F9469120F94D5149B01AC016B96E2
:103340006CAD7DAD8EAD9FAD6B970F94650E4B014F
:103350005C0127962CAD3DAD4EAD5FAD2797C30107
:10336000B2010F946A1220E030E040E05FE30F9476
:10337000650E6B017C0167966CAD7DAD8EAD9FAD2A
:10338000679790582B962CAD3DAD4EAD5FAD2B970A
:103390000F9446139B01AC01C501B4010F94650E57
:1033A0009B01AC01C701B6010F946A12A3019201FF
:1033B0000F9469126B017C0163962CAD3DAD4EAD4F
:1033C0005FAD639723966CAD7DAD8EAD9FAD2397BA
:1033D0000F946A1220E030E040E05FE30F94650E46
:1033E0002B013C012B962CAD3DAD4EAD5FAD2B9727
:1033F0002F966CAD7DAD8EAD9FAD2F970F9446137C
:103400009B01AC01C501B4010F94650E9B01AC0199
:10341000C301B2010F946A1223962CAD3DAD4EAD9F
:103420005FAD23970F94691214C089E40E942C3871
:10343000882329F00E94CA376B017C0103C0C12C8C
:10344000D12C76018AE40E942C388823F9F00E945E
:10345000CA3763966CAF7DAF8EAF9FAF639720E0A6
:1034600030E0A901C701B6010F94000E81111EC002
:1034700020E030E0A90163966CAD7DAD8EAD9FADCF
:1034800063970F94000E811111C00BC420E030E04F
:10349000A901C701B6010F94000E882309F401C4E5
:1034A00063961CAE1DAE1EAE1FAE6397D701C6015C
:1034B000B05823968CAF9DAFAEAFBFAF2397639646
:1034C0002CAD3DAD4EAD5FAD6397505827962CAFF8
:1034D0003DAF4EAF5FAF27979C01AD01BC01CD0161
:1034E0000F94650E4B015C0127962CAD3DAD4EADA2
:1034F0005FAD2797CA01B9010F94650E9B01AC011E
:10350000C501B4010F946A120F94D514AB966CAF39
:103510007DAF8EAF9FAFAB978091D5069091D606C9
:10352000A091D706B091D8062B968CAF9DAFAEAFC9
:10353000BFAF2B97A7019601BC01CD010F946A1272
:103540006B966CAF7DAF8EAF9FAF6B972091D90616
:103550003091DA064091DB065091DC0667962CAF7D
:103560003DAF4EAF5FAF679763962CAD3DAD4EADAF
:103570005FAD639767966CAD7DAD8EAD9FAD679780
:103580000F946A12E3966CAF7DAF8EAF9FAFE39757
:103590008091C4069091C506A091C606B091C70659
:1035A0006F968CAF9DAFAEAFBFAF6F976B962CADE4
:1035B0003DAD4EAD5FAD6B97BC01CD010F9469126F
:1035C0006B017C012091C8063091C9064091CA0662
:1035D0005091CB06A3962CAF3DAF4EAF5FAFA397F4
:1035E000E3962CAD3DAD4EAD5FADE397A3966CADCC
:1035F0007DAD8EAD9FADA3970F9469124B015C0119
:103600008091DD069091DE06A091DF06B091E00684
:10361000A7968CAF9DAFAEAFBFAFA7979C01AD0192
:103620006091CC067091CD068091CE069091CF0628
:103630000F9469122F966CAF7DAF8EAF9FAF2F970F
:103640002091E1063091E2064091E3065091E406B4
:10365000E7962CAF3DAF4EAF5FAFE7976091D006D6
:103660007091D1068091D2069091D3060F94691281
:10367000AF966CAF7DAF8EAF9FAFAF97A7019601AE
:1036800023966CAD7DAD8EAD9FAD23970F94650EE7
:103690002B013C01A501940127966CAD7DAD8EAD4B
:1036A0009FAD27970F94650E9B01AC01C301B2013A
:1036B0000F946A122B013C01A501940123966CAD75
:1036C0007DAD8EAD9FAD23970F94650E4B015C01D0
:1036D000A701960127966CAD7DAD8EAD9FAD279766
:1036E0000F94650E9B01AC01C501B4010F946912E2
:1036F000A30192010F94DD126B017C0120E030E008
:10370000A9010F94000E87FF0AC02BED3FE049ECA2
:1037100050E4C701B6010F946A126B017C011123BA
:1037200051F02BED3FE049EC50E4C701B6010F9496
:1037300069126B017C0120E030E0A901C701B601EC
:103740000F94000E811128C06F962CAD3DAD4EAD8B
:103750005FAD6F972B966CAD7DAD8EAD9FAD2B970A
:103760000F94000E811118C0A3962CAD3DAD4EAD47
:103770005FADA39767966CAD7DAD8EAD9FAD67973E
:103780000F94000E811108C07BEDC72E7FE0D72E6D
:1037900079ECE72E70E4F72EAB962CAD3DAD4EAD37
:1037A0005FADAB97C701B6010F94650E9B01AC01ED
:1037B0000F94650E4B015C012F962CAD3DAD4EADC7
:1037C0005FAD2F97CA01B9010F94650E9B01AC0143
:1037D000C501B4010F946A120F94D5144B015C011A
:1037E0002FE632E143E85AE30F94000E87FD55C2FD
:1037F000C501B4010F94DF130F94B3131B01672BA2
:1038000019F422242394312CB10180E090E00F942C
:10381000040E4B015C019B01AC01C701B6010F9482
:1038200046132B966CAF7DAF8EAF9FAF2B97A50144
:1038300094012F966CAD7DAD8EAD9FAD2F970F94FB
:103840004613AB966CAF7DAF8EAF9FAFAB97A50124
:103850009401AF966CAD7DAD8EAD9FADAF970F94DB
:103860004613AF966CAF7DAF8EAF9FAFAF972B96E1
:103870002CAD3DAD4EAD5FAD2B97CA01B9010F9494
:10388000650E20E030E040E05FE30F94650E9B01A1
:10389000AC0160E070E080E89FE30F9469126F96DE
:1038A0006CAF7DAF8EAF9FAF6F97A7968CAD9DAD80
:1038B000AEADBFADA79789879A87AB87BC87E796E0
:1038C0002CAD3DAD4EAD5FADE7972D873E874F8761
:1038D000588B6091100270911102072E000C880B1A
:1038E000990B0F94060E2091120230911302409111
:1038F0001402509115020F94650E2AE037ED43E251
:103900005CE30F94650EA3966CAF7DAF8EAF9FAF57
:10391000A3970E94BBF89B01AC0128533F4F4F4F28
:103920005F4FA7962CAF3DAF4EAF5FAFA7974FACA1
:1039300021965FAC219722966FAC229723967FAC9D
:10394000239741E050E065965FAF4EAF659759E130
:103950002C965FAF2C976596AEADBFAD6597A2155F
:10396000B30509F45AC10E94DCDC0E94BBF8DC01FB
:10397000CB01A7962CAD3DAD4EAD5FADA797821B99
:10398000930BA40BB50BB7FD11C00E94BBF89B01B4
:10399000AC0128533F4F4F4F5F4FA7962CAF3DAF21
:1039A0004EAF5FAFA79780E00E94DD8A2C963FADB7
:1039B0002C9731502C963FAF2C97332309F44BC0F2
:1039C0006F962CAD3DAD4EAD5FAD6F9727966CAD4C
:1039D0007DAD8EAD9FAD27970F94650E6B017C0179
:1039E0002B962CAD3DAD4EAD5FAD2B97B201C30113
:1039F0000F94650EA70196010F946A126B017C016A
:103A00006F962CAD3DAD4EAD5FAD6F97B201C3016A
:103A10000F94650E4B015C012B962CAD3DAD4EAD68
:103A20005FAD2B9727966CAD7DAD8EAD9FAD279783
:103A30000F94650E9B01AC01C501B4010F9469128E
:103A40002B013C01C601D70127968CAF9DAFAEAFCD
:103A5000BFAF279761C065964EAD5FAD6597BA0160
:103A600080E090E00F94040E2B962CAD3DAD4EAD52
:103A70005FAD2B970F94650E4B015C010F944313C0
:103A80006B017C01C501B4010F94CB144B015C01A7
:103A9000A701960123966CAD7DAD8EAD9FAD2397AA
:103AA0000F94650E2B013C01A501940163966CAD4A
:103AB0007DAD8EAD9FAD63970F94650E9B01AC01FC
:103AC000C301B2010F946A122B013C01A5019401BC
:103AD00023966CAD7DAD8EAD9FAD23970F94650E93
:103AE0004B015C01A701960163966CAD7DAD8EAD77
:103AF0009FAD63970F94650E9B01AC01C501B401A6
:103B00000F94691227966CAF7DAF8EAF9FAF27974A
:103B100059E12C965FAF2C979201A3016B966CAD87
:103B20007DAD8EAD9FAD6B970F946A1269837A83DA
:103B30008B839C8327962CAD3DAD4EAD5FAD279713
:103B4000E3966CAD7DAD8EAD9FADE3970F946A1299
:103B50006D837E838F839887AB962CAD3DAD4EAD44
:103B60005FADAB9769857A858B859C850F946A12CA
:103B700069877A878B879C87AF962CAD3DAD4EAD1C
:103B80005FADAF976D857E858F8598890F946A129A
:103B90006D877E878F87988BCE0101960E943A961B
:103BA000C090C30689819A81AB81BC8188A399A307
:103BB000AAA3BBA38D819E81AF81B8858CA39DA351
:103BC000AEA3BFA389859A85AB85BC8588A799A735
:103BD000AAA7BBA7CE0180960E94FE38CE01809690
:103BE0000E94F591A396ECACFDAC0EAD1FADA39772
:103BF0009E01235F3F4F4DEE56E069EE76E085EE85
:103C000096E00E944DAF65968EAD9FAD659701968B
:103C100065969FAF8EAF65979ECEC090C30680918C
:103C2000C4069091C506A091C606B091C70688A3A8
:103C300099A3AAA3BBA38091C8069091C906A0919D
:103C4000CA06B091CB068CA39DA3AEA3BFA380915F
:103C5000CC069091CD06A091CE06B091CF0688A754
:103C600099A7AAA7BBA7CE0180960E94FE38CE01D5
:103C700080960E94F591A396ECACFDAC0EAD1FAD05
:103C8000A39720ED36E04DEE56E069EE76E085EE46
:103C900096E00E944DAF0E94DE350E9442390C949E
:103CA000DD31E6E7FCE084918F010F5F1F4F882331
:103CB00021F00E944D39F801F6CFE5EFF1E0849153
:103CC0008F010F5F1F4F882311F40C94DD310E9488
:103CD0004D39F801F4CF80E50E942C38882329F073
:103CE0000E948A376B017C0103C0C12CD12C760164
:103CF00083E50E942C38882361F00E94CA3720E0B7
:103D000030E04AE754E40F94650E0F94B3136B014F
:103D10007C010E943DDE0E94423980914E0A9091C2
:103D20004F0AA091500AB091510AC80ED91EEA1E3E
:103D3000FB1E80917902811105C060E08BE092E06A
:103D40000E9477FD0E94BBF8DC01CB018C199D0914
:103D5000AE09BF09B7FD02C00C94DD3180E00E94BE
:103D6000DD8AF0CF0E941B4681110C94DD3180E585
:103D70000E942C38882321F00E949A37262F01C0F8
:103D800020E06091DD067091DE068091DF06909163
:103D9000E006C12CD12C00EAE02E02ECF02EC98204
:103DA000DA82EB82FC82C12CD12C30EAE32E32E4A1
:103DB000F32ECD82DE82EF82F886C12CD12C40EA30
:103DC000E42E41E4F42EC986DA86EB86FC86C12C0B
:103DD000D12C50ECE52E5FE7F52ECD86DE86EF8602
:103DE000F88A213081F1223031F518A219A21AA2E5
:103DF0001BA220E030E040EA51E40F946A126B010C
:103E00007C0123E333EB4FE753E40F94901418162F
:103E100044F413E3C12E13EBD12E1FE7E12E13E47C
:103E2000F12ECBAEDCAEEDAEFEAEBE01605E7F4FDE
:103E3000CE01CB9611C020E030E040EA51E40F946F
:103E4000000E87FF0BC018A219A21AA21BA2BE0166
:103E5000605E7F4FCE0109960E94C36F18A219A21F
:103E60001AA21BA29E01205E3F4F4DED56E0BE01FF
:103E70006B5F7F4FCE0101960E9477340C94DD3149
:103E80000E943DDE80E00E94096F0E94A36F81E0E6
:103E9000809304020E948D6C8091700980930402CB
:103EA00019821A821B821C82BE016F5F7F4F85E2DE
:103EB00092E00E94C36F0E94896F83E080930502A5
:103EC0000E9436AB0C94DD310E9487720C94DD3178
:103ED00020E030E0A9016091D5067091D60680916E
:103EE000D7069091D8060F946A126B017C0188E581
:103EF0000E942C38882321F00E94CA376B017C0174
:103F0000C8A2D9A2EAA2FBA220E030E0A9016091F8
:103F1000D9067091DA068091DB069091DC060F9449
:103F20006A126B017C0189E50E942C38882321F0FC
:103F30000E94CA376B017C01C982DA82EB82FC8263
:103F400020914F10309150104091511050915210CB
:103F5000C701B6010F9469126B017C0120914B10CF
:103F600030914C1040914D1050914E1068A179A1A4
:103F70008AA19BA10F946912A70196010E94DA50B1
:103F8000482F882311F40C94DD3180E0CD56DF4FAB
:103F90004883C359D0400E94096F0E94A36F83E5F4
:103FA0000E94FD37CD56DF4F4881C359D04088234A
:103FB00019F00E94BB37482F01E021E0BE016F5F7E
:103FC0007F4FCE0180960E948B706B017C019B011C
:103FD000AC010F941615811131C02CEA35EC47E283
:103FE00057E368A179A18AA19BA10F946A12AB0142
:103FF000BC0184E292E00E945CC42CEA35EC47E20A
:1040000057E369817A818B819C810F946A12AB019D
:10401000BC018FE192E00E945CC42CEA35EC47E2DF
:1040200057E3C701B6010F946A12AB01BC018AE1E4
:1040300092E00E945CC48AE00E944D390E94896F20
:104040000E9436AB0C94DD3181E08093FB030C942D
:10405000DD3185E40E942C38B82E811102C00E9407
:104060003DDEFAEB8F2EF2E09F2EA5EDCA2EA6E0E4
:10407000DA2EB4EEEB2EB3E0FB2E00E010E0A12C24
:10408000F40181914F010E942C38882309F44CC01F
:10409000D6012D913D914D915C91C057DF4F288302
:1040A000C059D040CF56DF4F3883C159D040CD568C
:1040B000DF4F4883C359D040CE56DF4F5883C25993
:1040C000D0400E94CA37F601608371838283938354
:1040D000C057DF4F2881C059D040CF56DF4F3881BD
:1040E000C159D040CD56DF4F4881C359D040CE563C
:1040F000DF4F5881C259D04003301105A9F00F9409
:1041000069129B01AC01D7016D917D918D919C91BC
:104110000F946A12F7016083718382839383C801CD
:104120000E94E835AA24A3940F5F1F4FF4E0CF0E3E
:10413000D11C24E0E20EF11C0430110509F0A0CFDF
:10414000AA2019F00E944B3703C0B1100E94B84654
:104150000E9436AB0C94DD3180917402882311F4F7
:104160000C94DD3189E40E942C38182F882321F02B
:104170000E949A37062F01C000E08AE40E942C3882
:10418000E82E882331F00E949A37F62E111104C0D0
:104190000AC0F12C1123B9F0053010F40C94AB33A4
:1041A000ECE2F2E004C034E03F15D0F30CC084919F
:1041B0008F010F5F1F4F882311F40C94DD310E9493
:1041C0004D39F801F4CF0E946D34112339F120915B
:1041D000F3033091F4030203B001039F700D112427
:1041E0002091400A3091410A620F731F072E000C84
:1041F000880B990B0F94060E20914B1030914C10A8
:1042000040914D1050914E100F946A126093C40665
:104210007093C5068093C6069093C706EE2041F1C1
:104220002091F5033091F6034F2D4203B001439FD7
:10423000700D11248091420A9091430A680F791FF2
:10424000072E000C880B990B0F94060E20914F102F
:104250003091501040915110509152100F946A12A9
:104260006093C8067093C9068093CA069093CB06E4
:1042700080E50E94FD3781110E94BB3786E40E94D1
:104280002C388823D9F00E94CA376B017C0120E0CA
:1042900030E0A9010F949014181684F420E030E067
:1042A00040E752E4C701B6010F944613609312022F
:1042B0007093130280931402909315020E94D1967A
:1042C0000C94DD318091FC039091FD0382379105C0
:1042D00009F4A2C70CF0D8C08B34910509F498C436
:1042E0000CF067C08831910509F4A9C29CF58231B0
:1042F000910509F489C784F497FF02C00C94DD315D
:10430000823091050CF4C4C1419711F00C94DD3159
:104310000E949ECE0C94DD318531910509F485C251
:104320003CF4449711F00C94DD31EAE8F2E03AC233
:104330008631910509F47DC2479711F00C94DD3167
:1043400040E061E08091F0039091F1030E94014010
:104350000C94DD318E31910509F496C2C4F48A3192
:10436000910509F47FC20CF475C28B31910509F4F3
:1043700087C24C9711F00C94DD3140E060E08091F1
:10438000F0039091F1030E9401400C94DD318032E2
:10439000910509F488C30CF4D0C38A32910509F45D
:1043A000F8C3C09711F00C94DD310E944BC80C94F7
:1043B000DD318836910509F44AC5F4F58235910559
:1043C00009F419C734F58D34910509F42BC40CF4A4
:1043D00023C48E34910509F429C48135910511F067
:1043E0000C94DD310E941CDB0E943DDE0E94638E36
:1043F00010929B0910929A0968EE73E080E090E0B9
:104400000E9402FD60E08AE993E00E9477FD0C942F
:10441000DD318435910509F4F7C60CF4F0C6853515
:10442000910509F4F5C68C35910511F00C94DD3138
:104430000E94F5AB0C94DD318D36910509F4A6C6CA
:104440009CF48A36910509F4A5C60CF457C68B3640
:10445000910509F4BEC68C36910511F00C94DD313E
:10446000109216020C94DD318F36910509F459C56E
:104470000CF444C58037910509F4F5C581379105E1
:1044800009F4F9C50C94DD318D3251E0950711F432
:104490000C94452C0CF079C0883C910509F437C781
:1044A000D4F58837910509F4CAC6DCF4853791053F
:1044B00009F4B8C64CF48337910511F00C94DD3142
:1044C0000E94ADAA0C94DD318637910509F4B3C67C
:1044D0008737910511F00C94DD310E9498BC0C9443
:1044E000DD318C38910509F4F2C55CF4893791050A
:1044F00011F00C94DD3110920402109270090C94AA
:10450000DD318139910509F4A1C68B39910509F492
:1045100012C60C94DD31833D910511F40C94352BBA
:10452000DCF48B3C910509F43CC74CF4893C9105C3
:1045300011F00C94DD310E944FAA0C94DD318C3CBB
:10454000910509F432C78D3C910511F00C94DD31D1
:104550000E945AA90C94DD318D3D910511F40C9403
:10456000DA2B3CF48C3D910511F40C94CD2B0C947A
:10457000DD31823E910511F40C94F32B8C32914085
:1045800011F40C941C2C0C94DD31843FE1E09E0767
:1045900011F40C940131E4F5813921E0920711F412
:1045A0000C941830C4F48F3241E0940711F40C9449
:1045B000372D14F40C94E32C8336A1E09A0711F400
:1045C0000C9464318039914011F00C94DD310E94DB
:1045D0003DDE0C94DD318A39E1E09E0709F447C5E0
:1045E00054F48239914011F00C94DD3180E00E9446
:1045F00041700C94DD31843A31E0930711F40C944E
:104600001C30853A914011F40C9470300C94DD31DB
:10461000893952E0950709F4CCC6C4F4863FB1E06D
:104620009B0711F40C94203114F40C941A31873F39
:10463000F1E09F0711F40C9423318835924011F07A
:104640000C94DD310E9486A40C94DD31833533E077
:10465000930711F40C942F317CF48A39924011F0B5
:104660000C94DD3195E8E92E99E0F92E0AEB12E081
:1046700023E0D22ED00E59C7803AA3E09A0709F45E
:104680004FC2873E934011F40C947B310C94DD3182
:10469000A090F003B090F10380E50E942C388823AD
:1046A00059F00E948A376B017C0111E0672B682B5F
:1046B000692B31F410E004C010E0C12CD12C76013C
:1046C00083E50E942C388823F1F00E94CA3720E04D
:1046D00030E04AE754E40F94650E0F94B3136B0176
:1046E0007C01111112C0672B682B692B71F4A11486
:1046F000B10459F0F5018081882339F061E0C501EA
:104700000E949AFD07C0112391F360E08DE692E0CC
:104710000E9477FD83E090E09093450A8093440ADD
:1047200081E0809346090E943DDE0E944239C11417
:10473000D104E104F104F1F080914E0A90914F0A06
:10474000A091500AB091510AC80ED91EEA1EFB1E54
:104750000E94BBF8DC01CB018C199D09AE09BF0991
:10476000B7FF1CC0809146098823C1F080E00E94F9
:10477000DD8AEECF80914609882321F080E00E94F7
:10478000DD8AF8CF8091411160E0882319F08DE532
:1047900092E002C08BE492E00E9477FD10924609FD
:1047A0000C94DD3184918F010F5F1F4F882321F01E
:1047B0000E944D39F801F6CF1092C7131092C6131C
:1047C00040E050E0BA0182E791E10E944B488BE162
:1047D000E2E7F1E1DE01159601900D928A95E1F78D
:1047E00080917011909171119C838B8380EF92E086
:1047F0009A83898340E050E0BE016F5F7F4F81E97B
:1048000093E00E942FE1CE0101960E940C51EBE74C
:10481000F2E084918F010F5F1F4F882311F40C94F5
:10482000DD310E944D39F801F4CF0E9428430C94E9
:10483000DD3110924111109242110C94DD318091C2
:104840004211882319F081E0809341110E94EC44C9
:104850000C94DD311092411186E191E10E94E3DD7B
:104860000C94DD3180914211882311F40C94DD31D8
:1048700083E50E942C3881110C94F5310C94DD31C4
:104880000E9493CD0C94DD3180914211882311F464
:104890000C94DD318CE093E10E9491808CE093E1F7
:1048A0000E9434491092401110923F11E090F003A1
:1048B000F090F10380914211882311F40C94DD31C2
:1048C0000E94E6DE1D8218861C821B8280EF92E029
:1048D0009A8389838EE691E190938E1180938D1156
:1048E000D7018C918F3209F067C06FE270E0C70189
:1048F0000F94A1158C010F5F1F4FFE0131964F01E0
:104900000115110509F45EC06FE270E0C8010F9453
:10491000A1156C01009709F456C00817190708F093
:1049200052C05C01A01AB10AA501B801CE0180965F
:104930000F94CA15E0E2F0E0EC0FFD1FEA0DFB1D3D
:1049400010828E01005E1F4FD8018D918D0188234A
:1049500019F00E944D39F8CF8AE00E944D396091DC
:104960008D1170918E116115710511F06C5F7F4F83
:1049700021E0AE01405E5F4FCE0105960E94F34EEE
:10498000811112C0BE01605E7F4F81EC92E00E94F7
:10499000AFC48EE20E944D398AE00E944D39C401B5
:1049A0000E940C510C94DD3190928E1180928D11E9
:1049B00086010F5F1F4FA4CF8FE891E190938E1176
:1049C00080938D11870160918D1170918E11611509
:1049D000710511F06C5F7F4F18A21BA222E0A801A5
:1049E000CE0180960E94F34E811102C0F12C14C0BA
:1049F000CE0180960E9454DE8823C1F361E0CE018F
:104A000080960E943D49009789F325EEFC012083A2
:104A10001BA20E943F7EF82ECE0180960E94F8389D
:104A2000FF2011F1EBE9EE2EE2E0FE2EF70184917A
:104A3000882331F0FFEFEF1AFF0A0E944D39F6CFBD
:104A4000D8018D918D01882319F00E944D39F8CF3E
:104A50008AE00E944D391092BD131092BE1310923D
:104A6000BF131092C01319C079EAE72E72E0F72E37
:104A7000F7018491882331F0FFEFEF1AFF0A0E94BB
:104A80004D39F6CFD8018D918D01882319F00E9400
:104A90004D39F8CF8EE20E944D39CE0101960E9429
:104AA0000C510C94DD318091411181110E943DDE49
:104AB000E090F003F090F10380E50E94FD37182F9D
:104AC000882319F00E94BB37182F80914211882348
:104AD00011F40C94DD31412F61E0C7010E940140C7
:104AE00083E50E942C38882381F00E949A37AB011D
:104AF000BC014093BD135093BE136093BF137093DA
:104B0000C0138CE093E10E944B48809142118823AE
:104B100019F081E08093411111110C94DD3196CE92
:104B20008091F0039091F10321E02093401140E047
:104B300060E00E9401400C94DD3186E191E10E9429
:104B4000B6DD68A379A38AA39BA3BE016F5F7F4FE5
:104B5000CE0180960E94383860E0CE0101960E9416
:104B60009AFDEAEEFAE284918F010F5F1F4F8823CE
:104B700021F00E944D39F801F6CFBE016F5F7F4FE3
:104B800085ED92E00E94AFC48AE00E944D390C94FA
:104B9000DD3183E50E942C38882311F40C94DD313B
:104BA0000E94AA37E82E80E50E942C38882339F02D
:104BB0000E949A378B0177FF04C00C94DD310DE021
:104BC00010E0902FE3E0F4E088E28E0F249192173A
:104BD00029F031968E13FACF0C940532E6E7FCE00B
:104BE00084918F010F5F1F4F882321F00E944D3960
:104BF000F801F6CFE2EEF2E084918F010F5F1F4FD4
:104C0000882311F40C94DD310E944D39F801F4CF62
:104C10000E94EC440C94DD3186E191E10E94E3DDD9
:104C20000C94DD310E94F1DE0C94DD3183E50E94AD
:104C30002C38882359F00E949A376E34710531F46C
:104C400086E191E10E94E5C40C94DD3118A219A21D
:104C50001AA21BA2E1E5F3E084918F010F5F1F4FC1
:104C6000882321F00E944D39F801F6CFE8E4F3E003
:104C700084918F010F5F1F4F882321F00E944D39CF
:104C8000F801F6CF609124117091251180E090E039
:104C90004AE00E945439EBE3F3E084918F010F5F07
:104CA0001F4F882321F00E944D39F801F6CF609103
:104CB00026117091271180E090E04AE00E9454395B
:104CC000E0E3F3E084918F010F5F1F4F882321F011
:104CD0000E944D39F801F6CF609124117091251191
:104CE0008091261190912711681B790B80911611E4
:104CF00090911711019721E030E0029710F020E029
:104D000030E0621B730B80E090E04AE00E9454396F
:104D10008AE00E944D39E8E2F3E084918F010F5F51
:104D20001F4F882321F00E944D39F801F6CF809162
:104D3000281190912911A0912A11B0912B1188A3CB
:104D400099A3AAA3BBA3BE016F5F7F4FCE0180963C
:104D50000E943838EBE1F3E084918F010F5F1F4F21
:104D6000811105C0FE0131967F018F0104C00E94B0
:104D70004D39F801F1CFD8018D918D01882319F0BB
:104D80000E944D39F8CF80912C1190912D11A09156
:104D90002E11B0912F1188A399A3AAA3BBA3BE0182
:104DA0006F5F7F4FCE0180960E943838EBE0F3E0D2
:104DB00084918F010F5F1F4F882321F00E944D398E
:104DC000F801F6CFF70181917F01882319F00E9445
:104DD0004D39F8CF8AE00E944D39E3E0F3E0849149
:104DE0008F010F5F1F4F882321F00E944D39F8017A
:104DF000F6CFE3EFF2E084918F010F5F1F4F88231E
:104E000021F00E944D39F801F6CF20E030E04AE76A
:104E100054E4609130117091311180913211909170
:104E200033110F94461342E00E94F03CE1EFF2E0B0
:104E300084918F010F5F1F4F882321F00E944D390D
:104E4000F801F6CF8AE00E944D390C94DD3188E6F6
:104E500090E00E94BA3981110C94DD3180910C09E7
:104E600083FF02C00C94DD3183E50E942C38882337
:104E700009F440C00E94CA370F94AE1370939D0985
:104E800060939C0980E00E94D1DA0E94CA3720E03A
:104E900030E040EA52E40F94000E18163CF00E94F5
:104EA000F1DE60E080E693E00E9477FD0E94CA3761
:104EB0002091461030914710409148105091491070
:104EC0000F9490141816B4F480E193E09F938F939D
:104ED0008091F20390E001969F938F9389E593E090
:104EE0009F938F931F920E94D3440FB6F894DEBF16
:104EF0000FBECDBF0E94FAC40C94DD318EE40E9437
:104F00002C38882311F40C94DD310E949A37609379
:104F1000340A7093350A8093360A9093370A0C94BA
:104F2000DD3183E50E942C38882319F00E94AA37CE
:104F300001C080E080930C09EAEEFAE284918F01CF
:104F40000F5F1F4F882321F00E944D39F801F6CFE3
:104F5000E0E8F3E084918F010F5F1F4F882321F079
:104F60000E944D39F801F6CF80910C098823A1F1F8
:104F700062E7C62E63E0D62EE12CF12C20E0809172
:104F80000C0990E00E2C02C0959587950A94E2F7E3
:104F900080FF17C0BB24B394B20E222319F08CE219
:104FA0000E944D39F60125913491F90184918901CE
:104FB0000F5F1F4F882321F00E944D399801F5CFD4
:104FC0002B2DFFEFEF1AFF0A32E0C30ED11C45E094
:104FD000E416F104A1F642C0ECE7F3E084918F01FE
:104FE0000F5F1F4F8823D1F10E944D39F801F6CF92
:104FF0008AE50E94FD37882311F40C9456310E94F3
:10500000CA376B017C0120E030E040EA51EC0F949C
:10501000901487FF02C00C94493120E030E040EA50
:1050200051E4C701B6010F94000E181614F40C9445
:105030004931C0920802D0920902E0920A02F0922D
:105040000B020E94F646609108027091090280915D
:105050000A0290910B0242E00E94F03C8AE00E941A
:105060004D390C94DD3187E893E00E9414510E9481
:1050700026A90C94DD3183E50E942C38882369F041
:105080000E94AA3780934B028D3310F40C94DD31CB
:105090008CE380934B020C94DD31EAEEFAE28491CA
:1050A0008F010F5F1F4F882321F00E944D39F801B7
:1050B000F6CF40914B0250E060E070E080E993E071
:1050C0000E943FC48AE00E944D390C94DD318091EA
:1050D0000C0983FF02C00C94DD3183E50E942C385B
:1050E000882311F40C94DD310E94CA370F94AE135B
:1050F00070937310609372100C94DD3189E690E028
:105100000E94BA39811111C0E7E9F3E084918F015F
:105110000F5F1F4F882321F00E944D39F801F6CF11
:105120000E947AC68AE00E944D391092450A109278
:10513000440A0C94D93383E50E942C38882311F457
:105140000C94DD310E94AA3780934A0A8D3318F0FF
:105150008CE380934A0A0E94BBF86B017C0120918A
:105160004A0A30E0A8EEB3E00F945A12DC01CB01FA
:105170008C0D9D1DAE1DBF1D8093460A9093470A5E
:10518000A093480AB093490A0C94DD310E94CBC623
:105190000C94DD3183E50E942C38882339F00E947D
:1051A0009A378B016F3F710519F010F00FEF10E087
:1051B00080E50E942C38811106C010939B09009352
:1051C0009A090C94DD310E94AA3781110C94DD31CB
:1051D000F4CF80E50E942C38811106C010929B0903
:1051E00010929A090C94DD310E949A37672B11F0C6
:1051F0000C94DD31F3CF1092FA030C94DD3181E091
:105200008093FA030C94DD310E94ABAC0C94DD3139
:105210000E9493AC0C94DD310E943DDE0E9436ABBF
:105220000C94DD3160E08091F0039091F1030E94D5
:105230009AFD0C94DD310E9474AA0C94DD3181E05A
:1052400080930402809370090C94DD3183E50E9401
:105250002C38882319F00E949A3702C060E070E071
:105260008B01112702301105D4F0E6E7FCE08491B0
:105270008F010F5F1F4F882321F00E944D39F801E5
:10528000F6CFE9EAF3E084918F010F5F1F4F882387
:1052900011F40C94DD310E944D39F801F4CF88E40B
:1052A0000E942C388823A9F00E949A37603A710531
:1052B0003CF0653051E075072CF064E071E002C00D
:1052C00060EA70E0F801EE0FFF1FE256F64F7183BF
:1052D000608386E40E942C38882311F40C94DD311D
:1052E0000E949A37000F111FF801EE55F64F718397
:1052F00060836F3F710519F014F06FEF70E077FF76
:1053000002C060E070E0718360830C94DD3188EC52
:1053100090E00E94BA3981110C94DD3184E40E943E
:10532000FD378823D1F10E94CA3711E020E030E038
:10533000A9010F94000E811101C010E010935E09C5
:10534000112359F10091F20310E00E94CA37000FB7
:10535000111F000F111FF801E55EFD4F608371837F
:105360008283938320E030E0A90160911B02709159
:105370001C0280911D0290911E020F94000E81115B
:105380000CC080E090E0A0E4B0E480931B02909316
:105390001C02A0931D02B0931E020E94968A0C94D8
:1053A000DD310E942DAA0C94DD310E94C4A90C9419
:1053B000DD3188E40E94FD378823A1F00E94CA37BE
:1053C00023E333EB4FE753E40F94691260933806FD
:1053D0007093390680933A0690933B0682E090E002
:1053E0000E94E8358CE40E94FD37882351F00E942A
:1053F000CA376093810970938209809383099093DF
:10540000840982E50E94FD37882351F00E94CA3743
:1054100060937D0970937E0980937F099093800942
:1054200083E50E94FD37882351F00E94CA376093BC
:10543000790970937A0980937B0990937C0982E4BF
:105440000E94FD37882351F00E94CA37609357109D
:10545000709358108093591090935A1088E50E94C9
:10546000FD37882351F00E94CA3760937109709309
:105470007209809373099093740989E50E94FD373E
:10548000882351F00E94CA3760937509709376099A
:1054900080937709909378098AE50E94FD378823E5
:1054A00061F10E94CA379B01AC0160917109709152
:1054B000720980917309909174090F946912609335
:1054C00071097093720980937309909374090E9413
:1054D000CA379B01AC016091750970917609809182
:1054E0007709909178090F94691260937509709308
:1054F00076098093770990937809209181093091FA
:105500008209409183095091840960917D097091CD
:105510007E0980917F09909180090E9443934DC735
:10552000F4E0EF0EF11CD01679F0D8018D918D01C9
:105530000E94FD378823A1F30E94CA37F7016083D8
:10554000718382839383ECCFE0908509F090860984
:105550000091870910918809A0908909B0908A0963
:10556000C0908B09D0908C099501A601B701C801A4
:105570000F94901418162CF0BA2DAB2DFC2DED2D98
:1055800004C0BE2DAF2DF02FE12F60908D097090DB
:105590008E0980908F09909090099301A4016B2F40
:1055A0007A2F8F2F9E2F0F94901418165CF495016C
:1055B000A601B701C8010F94901418162CF07501BC
:1055C000860102C0730184019701A8016091380629
:1055D0007091390680913A0690913B060F946912BA
:1055E000609338067093390680933A0690933B0691
:1055F0009701A801609185097091860980918709BA
:10560000909188090F9469126093850970938609B7
:1056100080938709909388099701A801609189096F
:1056200070918A0980918B0990918C090F9469126D
:105630006093890970938A0980938B0990938C09F0
:105640009701A80160918D0970918E0980918F0951
:10565000909190090F94691260938D0970938E094F
:1056600080938F0990939009A8C6EAEEFAE284919C
:105670008F010F5F1F4F882321F00E944D39F801E1
:10568000F6CF83E50E94FD37882321F00E94BB37C7
:1056900080937302E3EFF3E084918F010F5F1F4F5C
:1056A000882321F00E944D39F801F6CF80917302D2
:1056B000811103C0EFEEF3E002C0EBEEF3E0849162
:1056C0008F010F5F1F4F882321F00E944D39F80191
:1056D000F6CFE3EEF3E084918F010F5F1F4F882335
:1056E00021F00E944D39F801F6CF409167025091A8
:1056F00068026091690270916A0281EE93E00E94F3
:1057000079C440916B0250916C0260916D0270916E
:105710006E028EED93E00E9479C440916F02509129
:10572000700260917102709172028BED93E00E94A1
:1057300079C4E3EDF3E084918F010F5F1F4F88235D
:1057400021F00E944D39F801F6CF40915B02509153
:105750005C0260915D0270915E0281ED93E00E94B7
:1057600079C440915F025091600260916102709132
:1057700062028EEC93E00E9479C4409163025091E2
:10578000640260916502709166028BEC93E00E9466
:1057900079C48AE00E944D3910C683E50E942C38F6
:1057A000882309F40AC60E949A3770931102609305
:1057B000100203C68DED90E00E94BA398111FDC53B
:1057C00083E50E942C38882309F4F7C50091F20381
:1057D00010E00E949A37000F111FF801E95EFD4F9B
:1057E00071836083EAC580E50E94FD37882309F450
:1057F000E4C50E949A37F62EC62ED72E83E50E9466
:105800002C38882321F00E949A378B0102C00FEFB9
:105810001FEFC8010196039708F0CFC5D7FCCDC58F
:10582000E3E0F4E088E28E0F9491F91609F4C5C51F
:1058300031968E13F9CF95C783E50E942C388823C3
:1058400019F00E949A3702C064E071E079A368A35E
:1058500080E50E942C38882339F00E949A376938F5
:1058600023E1720730F402C068EE73E07A83698343
:1058700004C088E893E19A838983BE01605E7F4F0C
:10588000CE0101960E94604498C585E40E942C38A0
:10589000811110C080E50E94FD37882391F00E949D
:1058A000CA376093290270932A0280932B02909347
:1058B0002C0207C00E94AA37882361F3E6E7FCE0C8
:1058C00071C089E40E94FD37882381F00E94CA37A5
:1058D0002CEA35EC47E25EE30F94650E60933102EB
:1058E00070933202809333029093340284E40E94D6
:1058F000FD37882381F00E94CA372CEA35EC47E255
:105900005EE30F94461360932D0270932E028093F2
:105910002F0290933002EAEEFAE284918F010F5F3A
:105920001F4F882321F00E944D39F801F6CF409196
:10593000290250912A0260912B0270912C0283E37C
:1059400094E00E9479C42CEA35EC47E25EE3609172
:1059500031027091320280913302909134020F949F
:105960004613AB01BC018FE294E00E945CC42CEAB8
:1059700035EC47E25EE360912D0270912E0280913A
:105980002F02909130020F94650EAB01BC018BE2A7
:1059900094E00E945CC48AE00E944D390EC50E94CA
:1059A0004D39F80184918F010F5F1F4F8111F7CF9F
:1059B00000E213E0D8018D918D01882309F44ECBCC
:1059C0000E944D39F7CF83E50E94FD37182F8823B9
:1059D00071F00E94CA370F94AE1370935A0260930D
:1059E000590221E0672B09F020E020934A1080E55E
:1059F0000E94FD37882359F02091590230915A02B4
:105A0000232B11F00E94BB3780934A10D6C411118A
:105A1000D4C4EAEEFAE284918F010F5F1F4F88230E
:105A200021F00E944D39F801F6CF80914A10811182
:105A300003C064E073E002C064E973E08CE494E0C6
:105A40000E94AFC46091590270915A028BE394E0B6
:105A50000E9496C4E7E3F4E084918F010F5F1F4F2B
:105A6000882309F4AAC40E944D39F801F5CF85E4D2
:105A70000E942C38882321F00E949A378B0102C0A3
:105A800000E010E083E40E942C38882349F00E9453
:105A90009A37C657DF4F79836883CA58D04008C009
:105AA000E5E0F0E0C657DF4FF983E883CA58D040FD
:105AB00085E50E94FD37C058DF4F8883C058D0402D
:105AC000882339F00E94BB37C058DF4F8883C05805
:105AD000D04017FD07C0C12CD12CB6E1EB2EB3E4AA
